{
  "contractName": "EventContract",
  "abi": [
    {
      "anonymous": false,
      "inputs": [
        {
          "indexed": true,
          "internalType": "uint256",
          "name": "eventId",
          "type": "uint256"
        },
        {
          "indexed": true,
          "internalType": "address",
          "name": "owner",
          "type": "address"
        }
      ],
      "name": "EventCanceled",
      "type": "event"
    },
    {
      "anonymous": false,
      "inputs": [
        {
          "indexed": true,
          "internalType": "uint256",
          "name": "eventId",
          "type": "uint256"
        },
        {
          "indexed": true,
          "internalType": "address",
          "name": "owner",
          "type": "address"
        }
      ],
      "name": "EventCreated",
      "type": "event"
    },
    {
      "anonymous": false,
      "inputs": [
        {
          "indexed": true,
          "internalType": "uint256",
          "name": "eventId",
          "type": "uint256"
        },
        {
          "indexed": true,
          "internalType": "address",
          "name": "owner",
          "type": "address"
        },
        {
          "indexed": false,
          "internalType": "uint256",
          "name": "amount",
          "type": "uint256"
        }
      ],
      "name": "FundsWithdrawn",
      "type": "event"
    },
    {
      "anonymous": false,
      "inputs": [
        {
          "indexed": true,
          "internalType": "uint256",
          "name": "eventId",
          "type": "uint256"
        },
        {
          "indexed": false,
          "internalType": "uint256[]",
          "name": "tierIndexes",
          "type": "uint256[]"
        },
        {
          "indexed": false,
          "internalType": "uint256[]",
          "name": "quantities",
          "type": "uint256[]"
        },
        {
          "indexed": true,
          "internalType": "address",
          "name": "buyer",
          "type": "address"
        }
      ],
      "name": "TicketPurchased",
      "type": "event"
    },
    {
      "inputs": [],
      "name": "eventCount",
      "outputs": [
        {
          "internalType": "uint256",
          "name": "",
          "type": "uint256"
        }
      ],
      "stateMutability": "view",
      "type": "function",
      "constant": true
    },
    {
      "inputs": [
        {
          "internalType": "uint256",
          "name": "",
          "type": "uint256"
        }
      ],
      "name": "events",
      "outputs": [
        {
          "internalType": "address",
          "name": "owner",
          "type": "address"
        },
        {
          "internalType": "string",
          "name": "posterUrl",
          "type": "string"
        },
        {
          "internalType": "string",
          "name": "name",
          "type": "string"
        },
        {
          "internalType": "uint256",
          "name": "date",
          "type": "uint256"
        },
        {
          "components": [
            {
              "internalType": "string",
              "name": "name",
              "type": "string"
            },
            {
              "internalType": "string",
              "name": "latitude",
              "type": "string"
            },
            {
              "internalType": "string",
              "name": "longitude",
              "type": "string"
            }
          ],
          "internalType": "struct EventContract.Venue",
          "name": "venue",
          "type": "tuple"
        },
        {
          "internalType": "bool",
          "name": "isActive",
          "type": "bool"
        },
        {
          "internalType": "uint256",
          "name": "revenue",
          "type": "uint256"
        }
      ],
      "stateMutability": "view",
      "type": "function",
      "constant": true
    },
    {
      "stateMutability": "payable",
      "type": "receive",
      "payable": true
    },
    {
      "inputs": [
        {
          "internalType": "string",
          "name": "_posterUrl",
          "type": "string"
        },
        {
          "internalType": "string",
          "name": "_name",
          "type": "string"
        },
        {
          "internalType": "uint256",
          "name": "_date",
          "type": "uint256"
        },
        {
          "internalType": "string",
          "name": "_venueName",
          "type": "string"
        },
        {
          "internalType": "string",
          "name": "_latitude",
          "type": "string"
        },
        {
          "internalType": "string",
          "name": "_longitude",
          "type": "string"
        },
        {
          "internalType": "string[]",
          "name": "_tierNames",
          "type": "string[]"
        },
        {
          "internalType": "uint256[]",
          "name": "_tierPrices",
          "type": "uint256[]"
        },
        {
          "internalType": "uint256[]",
          "name": "_tierTicketsCounts",
          "type": "uint256[]"
        }
      ],
      "name": "createEvent",
      "outputs": [],
      "stateMutability": "nonpayable",
      "type": "function"
    },
    {
      "inputs": [
        {
          "internalType": "uint256",
          "name": "_eventId",
          "type": "uint256"
        }
      ],
      "name": "getEventTiers",
      "outputs": [
        {
          "internalType": "string[]",
          "name": "names",
          "type": "string[]"
        },
        {
          "internalType": "uint256[]",
          "name": "prices",
          "type": "uint256[]"
        },
        {
          "internalType": "uint256[]",
          "name": "totalTickets",
          "type": "uint256[]"
        },
        {
          "internalType": "uint256[]",
          "name": "ticketsSold",
          "type": "uint256[]"
        }
      ],
      "stateMutability": "view",
      "type": "function",
      "constant": true
    },
    {
      "inputs": [
        {
          "internalType": "uint256",
          "name": "_eventId",
          "type": "uint256"
        },
        {
          "internalType": "uint256[]",
          "name": "_tierIndexes",
          "type": "uint256[]"
        },
        {
          "internalType": "uint256[]",
          "name": "_addedQuantities",
          "type": "uint256[]"
        }
      ],
      "name": "buyTickets",
      "outputs": [],
      "stateMutability": "payable",
      "type": "function",
      "payable": true
    },
    {
      "inputs": [
        {
          "internalType": "uint256",
          "name": "_eventId",
          "type": "uint256"
        }
      ],
      "name": "cancelEvent",
      "outputs": [],
      "stateMutability": "nonpayable",
      "type": "function"
    },
    {
      "inputs": [
        {
          "internalType": "uint256",
          "name": "_eventId",
          "type": "uint256"
        }
      ],
      "name": "withdrawFunds",
      "outputs": [],
      "stateMutability": "nonpayable",
      "type": "function"
    }
  ],
  "bytecode": "0x608060405234801561001057600080fd5b506118d6806100206000396000f3fe6080604052600436106100745760003560e01c80633f69babd1161004e5780633f69babd1461011d57806371be2e4a1461013d5780637d51d2141461015f578063eba655a71461018f5761009a565b80630b7914301461009f578063155dd5ee146100db57806332d40ed3146100fd5761009a565b3661009a5760405162461bcd60e51b8152600401610091906115eb565b60405180910390fd5b600080fd5b3480156100ab57600080fd5b506100bf6100ba366004611204565b6101a2565b6040516100d2979695949392919061130e565b60405180910390f35b3480156100e757600080fd5b506100fb6100f6366004611204565b6104bb565b005b34801561010957600080fd5b506100fb6101183660046110c3565b610639565b34801561012957600080fd5b506100fb610138366004611204565b6108ae565b34801561014957600080fd5b50610152610978565b6040516100d29190611790565b34801561016b57600080fd5b5061017f61017a366004611204565b61097e565b6040516100d294939291906113b3565b6100fb61019d36600461121c565b610d21565b600060208190529081526040902080546001820180546001600160a01b0390921692916101ce9061181e565b80601f01602080910402602001604051908101604052809291908181526020018280546101fa9061181e565b80156102475780601f1061021c57610100808354040283529160200191610247565b820191906000526020600020905b81548152906001019060200180831161022a57829003601f168201915b50505050509080600201805461025c9061181e565b80601f01602080910402602001604051908101604052809291908181526020018280546102889061181e565b80156102d55780601f106102aa576101008083540402835291602001916102d5565b820191906000526020600020905b8154815290600101906020018083116102b857829003601f168201915b505050505090806003015490806004016040518060600160405290816000820180546103009061181e565b80601f016020809104026020016040519081016040528092919081815260200182805461032c9061181e565b80156103795780601f1061034e57610100808354040283529160200191610379565b820191906000526020600020905b81548152906001019060200180831161035c57829003601f168201915b505050505081526020016001820180546103929061181e565b80601f01602080910402602001604051908101604052809291908181526020018280546103be9061181e565b801561040b5780601f106103e05761010080835404028352916020019161040b565b820191906000526020600020905b8154815290600101906020018083116103ee57829003601f168201915b505050505081526020016002820180546104249061181e565b80601f01602080910402602001604051908101604052809291908181526020018280546104509061181e565b801561049d5780601f106104725761010080835404028352916020019161049d565b820191906000526020600020905b81548152906001019060200180831161048057829003601f168201915b505050919092525050506008820154600990920154909160ff169087565b60008181526020819052604090205481906001600160a01b031633146104f35760405162461bcd60e51b815260040161009190611650565b6000828152602081905260409020600881015460ff16156105265760405162461bcd60e51b815260040161009190611711565b806003015442101561054a5760405162461bcd60e51b815260040161009190611698565b600081600901541161056e5760405162461bcd60e51b815260040161009190611516565b6009810180546000918290556040519091903390839061058d9061130b565b60006040518083038185875af1925050503d80600081146105ca576040519150601f19603f3d011682016040523d82523d6000602084013e6105cf565b606091505b50509050806105f05760405162461bcd60e51b8152600401610091906114ed565b336001600160a01b0316857ff440aec6b52895984d061d622e6edeba6210f7c3e059be920663140c084560d78460405161062a9190611790565b60405180910390a35050505050565b8151835114801561064b575080518251145b6106675760405162461bcd60e51b8152600401610091906115bf565b4287116106865760405162461bcd60e51b815260040161009190611544565b6001805460009081526020818152604090912080546001600160a01b031916331781558b5190926106be9290840191908d0190610efe565b5088516106d490600283019060208c0190610efe565b506003810188905560408051606081018252888152602080820189905291810187905288519091600484019161070f918391908c0190610efe565b5060208281015180516107289260018501920190610efe565b5060408201518051610744916002840191602090910190610efe565b50505060088101805460ff1916600117905560005b845181101561085d5781600701604051806080016040528087848151811061079157634e487b7160e01b600052603260045260246000fd5b602002602001015181526020018684815181106107be57634e487b7160e01b600052603260045260246000fd5b602002602001015181526020018584815181106107eb57634e487b7160e01b600052603260045260246000fd5b602090810291909101810151825260009181018290528354600181018555938252908190208251805193946004029091019261082a9284920190610efe565b5060208201516001820155604082015160028201556060909101516003909101558061085581611859565b915050610759565b506001546040513391907fe43349c008949cf6b65249356e6f918d4aaa0ca79f2b1166df4a4a98c9c16de290600090a36001805490600061089d83611859565b919050555050505050505050505050565b60008181526020819052604090205481906001600160a01b031633146108e65760405162461bcd60e51b815260040161009190611650565b6000828152602081905260409020600881015460ff166109185760405162461bcd60e51b81526004016100919061147f565b60098101541561093a5760405162461bcd60e51b815260040161009190611579565b60088101805460ff19169055604051339084907fa50dd1924bc5216776bc3d10280c41f329c629d8defd55e6a5979b04c98a5bc390600090a3505050565b60015481565b600081815260208190526040902060078101546060918291829182918067ffffffffffffffff8111156109c157634e487b7160e01b600052604160045260246000fd5b6040519080825280602002602001820160405280156109f457816020015b60608152602001906001900390816109df5790505b5095508067ffffffffffffffff811115610a1e57634e487b7160e01b600052604160045260246000fd5b604051908082528060200260200182016040528015610a47578160200160208202803683370190505b5094508067ffffffffffffffff811115610a7157634e487b7160e01b600052604160045260246000fd5b604051908082528060200260200182016040528015610a9a578160200160208202803683370190505b5093508067ffffffffffffffff811115610ac457634e487b7160e01b600052604160045260246000fd5b604051908082528060200260200182016040528015610aed578160200160208202803683370190505b50925060005b81811015610d1757826007018181548110610b1e57634e487b7160e01b600052603260045260246000fd5b90600052602060002090600402016000018054610b3a9061181e565b80601f0160208091040260200160405190810160405280929190818152602001828054610b669061181e565b8015610bb35780601f10610b8857610100808354040283529160200191610bb3565b820191906000526020600020905b815481529060010190602001808311610b9657829003601f168201915b5050505050878281518110610bd857634e487b7160e01b600052603260045260246000fd5b6020026020010181905250826007018181548110610c0657634e487b7160e01b600052603260045260246000fd5b906000526020600020906004020160010154868281518110610c3857634e487b7160e01b600052603260045260246000fd5b602002602001018181525050826007018181548110610c6757634e487b7160e01b600052603260045260246000fd5b906000526020600020906004020160020154858281518110610c9957634e487b7160e01b600052603260045260246000fd5b602002602001018181525050826007018181548110610cc857634e487b7160e01b600052603260045260246000fd5b906000526020600020906004020160030154848281518110610cfa57634e487b7160e01b600052603260045260246000fd5b602090810291909101015280610d0f81611859565b915050610af3565b5050509193509193565b6000838152602081905260409020600881015460ff16610d535760405162461bcd60e51b8152600401610091906116e4565b8151835114610d745760405162461bcd60e51b81526004016100919061175b565b6000805b8451811015610e8e576000858281518110610da357634e487b7160e01b600052603260045260246000fd5b602002602001015190506000858381518110610dcf57634e487b7160e01b600052603260045260246000fd5b602002602001015190506000856007018381548110610dfe57634e487b7160e01b600052603260045260246000fd5b906000526020600020906004020190508060020154828260030154610e2391906117e7565b1115610e415760405162461bcd60e51b8152600401610091906114b6565b818160010154610e5191906117ff565b610e5b90866117e7565b945081816003016000828254610e7191906117e7565b925050819055505050508080610e8690611859565b915050610d78565b5080341015610eaf5760405162461bcd60e51b815260040161009190611622565b80826009016000828254610ec391906117e7565b9091555050604051339086907fc6db8a087835cc59807ce9c3b208dc47b572d67d864ecfe8877d198825648cc29061062a9088908890611451565b828054610f0a9061181e565b90600052602060002090601f016020900481019282610f2c5760008555610f72565b82601f10610f4557805160ff1916838001178555610f72565b82800160010185558215610f72579182015b82811115610f72578251825591602001919060010190610f57565b50610f7e929150610f82565b5090565b5b80821115610f7e5760008155600101610f83565b600082601f830112610fa7578081fd5b81356020610fbc610fb7836117c3565b611799565b82815281810190858301855b85811015610ff157610fdf898684358b0101611058565b84529284019290840190600101610fc8565b5090979650505050505050565b600082601f83011261100e578081fd5b8135602061101e610fb7836117c3565b828152818101908583018385028701840188101561103a578586fd5b855b85811015610ff15781358452928401929084019060010161103c565b600082601f830112611068578081fd5b813567ffffffffffffffff8111156110825761108261188a565b611095601f8201601f1916602001611799565b8181528460208386010111156110a9578283fd5b816020850160208301379081016020019190915292915050565b60008060008060008060008060006101208a8c0312156110e1578485fd5b893567ffffffffffffffff808211156110f8578687fd5b6111048d838e01611058565b9a5060208c0135915080821115611119578687fd5b6111258d838e01611058565b995060408c0135985060608c0135915080821115611141578687fd5b61114d8d838e01611058565b975060808c0135915080821115611162578687fd5b61116e8d838e01611058565b965060a08c0135915080821115611183578586fd5b61118f8d838e01611058565b955060c08c01359150808211156111a4578485fd5b6111b08d838e01610f97565b945060e08c01359150808211156111c5578384fd5b6111d18d838e01610ffe565b93506101008c01359150808211156111e7578283fd5b506111f48c828d01610ffe565b9150509295985092959850929598565b600060208284031215611215578081fd5b5035919050565b600080600060608486031215611230578283fd5b83359250602084013567ffffffffffffffff8082111561124e578384fd5b61125a87838801610ffe565b9350604086013591508082111561126f578283fd5b5061127c86828701610ffe565b9150509250925092565b6000815180845260208085019450808401835b838110156112b557815187529582019590820190600101611299565b509495945050505050565b60008151808452815b818110156112e5576020818501810151868301820152016112c9565b818111156112f65782602083870101525b50601f01601f19169290920160200192915050565b90565b6001600160a01b038816815260e060208201819052600090611332908301896112c0565b828103604084015261134481896112c0565b9050866060840152828103608084015285516060825261136760608301826112c0565b90506020870151828203602084015261138082826112c0565b9150506040870151828203604084015261139a82826112c0565b96151560a08601525050505060c0015295945050505050565b6000608082016080835280875180835260a0850191506020925060a0838202860101838a01855b8381101561140857609f198884030185526113f68383516112c0565b948601949250908501906001016113da565b50508581038487015261141b818a611286565b935050505082810360408401526114328186611286565b905082810360608401526114468185611286565b979650505050505050565b6000604082526114646040830185611286565b82810360208401526114768185611286565b95945050505050565b60208082526019908201527f4576656e7420697320616c72656164792063616e63656c656400000000000000604082015260600190565b6020808252601c908201527f4e6f7420656e6f756768207469636b65747320617661696c61626c6500000000604082015260600190565b6020808252600f908201526e151c985b9cd9995c8819985a5b1959608a1b604082015260600190565b6020808252601490820152734e6f2066756e647320746f20776974686472617760601b604082015260600190565b6020808252818101527f4576656e742064617465206d75737420626520696e2074686520667574757265604082015260600190565b60208082526026908201527f43616e6e6f742063616e63656c206576656e74206166746572207469636b65746040820152652073616c657360d01b606082015260800190565b6020808252601290820152710a8d2cae440c8c2e8c240dad2e6dac2e8c6d60731b604082015260600190565b6020808252601f908201527f446972656374206465706f7369747320617265206e6f7420616c6c6f77656400604082015260600190565b602080825260149082015273125b9cdd59999a58da595b9d081c185e5b595b9d60621b604082015260600190565b60208082526028908201527f4f6e6c79206576656e74206f776e65722063616e20706572666f726d20746869604082015267399030b1ba34b7b760c11b606082015260800190565b6020808252602c908201527f43616e206f6e6c792077697468647261772066756e647320616674657220746860408201526b65206576656e74206461746560a01b606082015260800190565b6020808252601390820152724576656e74206973206e6f742061637469766560681b604082015260600190565b6020808252602a908201527f43616e6e6f742077697468647261772066756e64732066726f6d20616e2061636040820152691d1a5d9948195d995b9d60b21b606082015260800190565b6020808252818101527f4d69736d6174636820696e20746965727320616e64207175616e746974696573604082015260600190565b90815260200190565b60405181810167ffffffffffffffff811182821017156117bb576117bb61188a565b604052919050565b600067ffffffffffffffff8211156117dd576117dd61188a565b5060209081020190565b600082198211156117fa576117fa611874565b500190565b600081600019048311821515161561181957611819611874565b500290565b60028104600182168061183257607f821691505b6020821081141561185357634e487b7160e01b600052602260045260246000fd5b50919050565b600060001982141561186d5761186d611874565b5060010190565b634e487b7160e01b600052601160045260246000fd5b634e487b7160e01b600052604160045260246000fdfea2646970667358221220b9f55102f4b456f12e8b61a1e240d08c728ac91c6f4794b0f13d75aeb5eaf17364736f6c63430008000033",
  "immutableReferences": {},
  "source": "// SPDX-License-Identifier: MIT\npragma solidity ^0.8.0;\n\ncontract EventContract {\n    struct Event {\n        address owner;\n        string posterUrl;\n        string name;\n        uint256 date;\n        Venue venue;\n        Ticket[] tiers;\n        bool isActive;\n        uint256 revenue;\n    }\n\n    struct Venue {\n        string name;\n        string latitude;\n        string longitude;\n    }\n\n    struct Ticket {\n        string name;\n        uint256 price; // in Wei\n        uint256 totalTickets;\n        uint256 ticketsSold;\n    }\n\n    mapping(uint256 => Event) public events;\n    uint256 public eventCount;\n\n    event EventCreated(uint256 indexed eventId, address indexed owner);\n    event TicketPurchased(uint256 indexed eventId, uint256[] tierIndexes, uint256[] quantities, address indexed buyer);\n    event EventCanceled(uint256 indexed eventId, address indexed owner);\n    event FundsWithdrawn(uint256 indexed eventId, address indexed owner, uint256 amount);\n\n    modifier onlyOwner(uint256 eventId) {\n        require(events[eventId].owner == msg.sender, \"Only event owner can perform this action\");\n        _;\n    }\n\n    function createEvent(\n        string memory _posterUrl,\n        string memory _name,\n        uint256 _date,\n        string memory _venueName,\n        string memory _latitude,\n        string memory _longitude,\n        string[] memory _tierNames,\n        uint256[] memory _tierPrices,\n        uint256[] memory _tierTicketsCounts\n    ) \n    public {\n        require(_tierNames.length == _tierPrices.length && _tierPrices.length == _tierTicketsCounts.length, \"Tier data mismatch\");\n        require(_date > block.timestamp, \"Event date must be in the future\");\n\n        Event storage newEvent = events[eventCount];\n        newEvent.owner = msg.sender;\n        newEvent.posterUrl = _posterUrl;\n        newEvent.name = _name;\n        newEvent.date = _date; // Store as UNIX timestamp\n        newEvent.venue = Venue(_venueName, _latitude, _longitude);\n        newEvent.isActive = true;\n\n        for (uint256 i = 0; i < _tierNames.length; i++) {\n            newEvent.tiers.push(Ticket({\n                name: _tierNames[i],\n                price: _tierPrices[i],\n                totalTickets: _tierTicketsCounts[i],\n                ticketsSold: 0\n            }));\n        }\n\n        emit EventCreated(eventCount, msg.sender);\n        eventCount++;\n    }\n\n    function getEventTiers(uint256 _eventId) \n    public view returns (\n        string[] memory names,\n        uint256[] memory prices,\n        uint256[] memory totalTickets,\n        uint256[] memory ticketsSold\n    ) {\n        Event storage _event = events[_eventId];\n        uint256 tierCount = _event.tiers.length;\n\n        names = new string[](tierCount);\n        prices = new uint256[](tierCount);\n        totalTickets = new uint256[](tierCount);\n        ticketsSold = new uint256[](tierCount);\n\n        for (uint256 i = 0; i < tierCount; i++) {\n            names[i] = _event.tiers[i].name;\n            prices[i] = _event.tiers[i].price;\n            totalTickets[i] = _event.tiers[i].totalTickets;\n            ticketsSold[i] = _event.tiers[i].ticketsSold;\n        }\n\n        return (names, prices, totalTickets, ticketsSold);\n    }\n\n    function buyTickets(\n        uint256 _eventId, \n        uint256[] memory _tierIndexes, \n        uint256[] memory _addedQuantities\n    ) \n    public payable {\n        Event storage _event = events[_eventId];\n        require(_event.isActive, \"Event is not active\");\n        require(_tierIndexes.length == _addedQuantities.length, \"Mismatch in tiers and quantities\");\n\n        uint256 totalCost = 0;\n\n        for (uint256 i = 0; i < _tierIndexes.length; i++) {\n            uint256 _tierIndex = _tierIndexes[i];\n            uint256 _quantity = _addedQuantities[i];\n\n            Ticket storage ticket = _event.tiers[_tierIndex];\n            require(ticket.ticketsSold + _quantity <= ticket.totalTickets, \"Not enough tickets available\");\n            \n            totalCost += ticket.price * _quantity;\n            ticket.ticketsSold += _quantity;\n        }\n\n        require(msg.value >= totalCost, \"Insufficient payment\");\n\n        _event.revenue += totalCost;\n        \n        emit TicketPurchased(_eventId, _tierIndexes, _addedQuantities, msg.sender);\n    }\n\n    function cancelEvent(uint256 _eventId) \n    public onlyOwner(_eventId) {\n        Event storage _event = events[_eventId];\n        require(_event.isActive, \"Event is already canceled\");\n        require(_event.revenue == 0, \"Cannot cancel event after ticket sales\");\n\n        _event.isActive = false;\n\n        emit EventCanceled(_eventId, msg.sender);\n    }\n\n    function withdrawFunds(uint256 _eventId) \n    public onlyOwner(_eventId) {\n        Event storage _event = events[_eventId];\n        require(!_event.isActive, \"Cannot withdraw funds from an active event\");\n        require(block.timestamp >= _event.date, \"Can only withdraw funds after the event date\");\n        require(_event.revenue > 0, \"No funds to withdraw\");\n\n        uint256 balance = _event.revenue;\n        _event.revenue = 0;\n\n        // Adding safety checks for transfer\n        (bool success, ) = payable(msg.sender).call{value: balance}(\"\");\n        require(success, \"Transfer failed\");\n\n        // payable(msg.sender).transfer(balance);\n\n        emit FundsWithdrawn(_eventId, msg.sender, balance);\n    }\n\n    // Optional: Function to prevent accidental deposits to the contract\n    receive() external payable {\n        revert(\"Direct deposits are not allowed\");\n    }\n}\n",
  "sourcePath": "C:\\Users\\Maigua\\Desktop\\eventverse\\client\\src\\contracts\\EventContract.sol",
  "compiler": {
    "name": "solc",
    "version": "0.8.0+commit.c7dfd78e.Emscripten.clang"
  },
  "schemaVersion": "3.4.16",
  "updatedAt": "2025-01-14T18:45:39.180Z",
  "networkType": "ethereum",
  "devdoc": {
    "kind": "dev",
    "methods": {},
    "version": 1
  },
  "userdoc": {
    "kind": "user",
    "methods": {},
    "version": 1
  }
}