{
  "contractName": "EventContract",
  "abi": [
    {
      "anonymous": false,
      "inputs": [
        {
          "indexed": true,
          "internalType": "uint256",
          "name": "eventId",
          "type": "uint256"
        },
        {
          "indexed": true,
          "internalType": "address",
          "name": "owner",
          "type": "address"
        }
      ],
      "name": "EventCanceled",
      "type": "event"
    },
    {
      "anonymous": false,
      "inputs": [
        {
          "indexed": true,
          "internalType": "uint256",
          "name": "eventId",
          "type": "uint256"
        },
        {
          "indexed": true,
          "internalType": "address",
          "name": "owner",
          "type": "address"
        }
      ],
      "name": "EventCreated",
      "type": "event"
    },
    {
      "anonymous": false,
      "inputs": [
        {
          "indexed": true,
          "internalType": "uint256",
          "name": "eventId",
          "type": "uint256"
        },
        {
          "indexed": true,
          "internalType": "address",
          "name": "owner",
          "type": "address"
        },
        {
          "indexed": false,
          "internalType": "uint256",
          "name": "amount",
          "type": "uint256"
        }
      ],
      "name": "FundsWithdrawn",
      "type": "event"
    },
    {
      "anonymous": false,
      "inputs": [
        {
          "indexed": true,
          "internalType": "uint256",
          "name": "eventId",
          "type": "uint256"
        },
        {
          "indexed": false,
          "internalType": "uint256[]",
          "name": "tierIndexes",
          "type": "uint256[]"
        },
        {
          "indexed": false,
          "internalType": "uint256[]",
          "name": "quantities",
          "type": "uint256[]"
        },
        {
          "indexed": true,
          "internalType": "address",
          "name": "buyer",
          "type": "address"
        }
      ],
      "name": "TicketPurchased",
      "type": "event"
    },
    {
      "inputs": [],
      "name": "eventCount",
      "outputs": [
        {
          "internalType": "uint256",
          "name": "",
          "type": "uint256"
        }
      ],
      "stateMutability": "view",
      "type": "function",
      "constant": true
    },
    {
      "inputs": [
        {
          "internalType": "uint256",
          "name": "",
          "type": "uint256"
        }
      ],
      "name": "events",
      "outputs": [
        {
          "internalType": "address",
          "name": "owner",
          "type": "address"
        },
        {
          "internalType": "string",
          "name": "posterUrl",
          "type": "string"
        },
        {
          "internalType": "string",
          "name": "name",
          "type": "string"
        },
        {
          "internalType": "uint256",
          "name": "date",
          "type": "uint256"
        },
        {
          "components": [
            {
              "internalType": "string",
              "name": "name",
              "type": "string"
            },
            {
              "internalType": "string",
              "name": "latitude",
              "type": "string"
            },
            {
              "internalType": "string",
              "name": "longitude",
              "type": "string"
            }
          ],
          "internalType": "struct EventContract.Venue",
          "name": "venue",
          "type": "tuple"
        },
        {
          "internalType": "bool",
          "name": "isActive",
          "type": "bool"
        },
        {
          "internalType": "uint256",
          "name": "revenue",
          "type": "uint256"
        }
      ],
      "stateMutability": "view",
      "type": "function",
      "constant": true
    },
    {
      "inputs": [
        {
          "internalType": "string",
          "name": "_posterUrl",
          "type": "string"
        },
        {
          "internalType": "string",
          "name": "_name",
          "type": "string"
        },
        {
          "internalType": "uint256",
          "name": "_date",
          "type": "uint256"
        },
        {
          "internalType": "string",
          "name": "_venueName",
          "type": "string"
        },
        {
          "internalType": "string",
          "name": "_latitude",
          "type": "string"
        },
        {
          "internalType": "string",
          "name": "_longitude",
          "type": "string"
        },
        {
          "internalType": "string[]",
          "name": "_tierNames",
          "type": "string[]"
        },
        {
          "internalType": "uint256[]",
          "name": "_tierPrices",
          "type": "uint256[]"
        },
        {
          "internalType": "uint256[]",
          "name": "_tierTicketsCounts",
          "type": "uint256[]"
        }
      ],
      "name": "createEvent",
      "outputs": [],
      "stateMutability": "nonpayable",
      "type": "function"
    },
    {
      "inputs": [
        {
          "internalType": "uint256",
          "name": "_eventId",
          "type": "uint256"
        }
      ],
      "name": "getEventTiers",
      "outputs": [
        {
          "internalType": "string[]",
          "name": "names",
          "type": "string[]"
        },
        {
          "internalType": "uint256[]",
          "name": "prices",
          "type": "uint256[]"
        },
        {
          "internalType": "uint256[]",
          "name": "totalTickets",
          "type": "uint256[]"
        },
        {
          "internalType": "uint256[]",
          "name": "ticketsSold",
          "type": "uint256[]"
        }
      ],
      "stateMutability": "view",
      "type": "function",
      "constant": true
    },
    {
      "inputs": [
        {
          "internalType": "uint256",
          "name": "_eventId",
          "type": "uint256"
        },
        {
          "internalType": "uint256[]",
          "name": "_tierIndexes",
          "type": "uint256[]"
        },
        {
          "internalType": "uint256[]",
          "name": "_addedQuantities",
          "type": "uint256[]"
        }
      ],
      "name": "buyTickets",
      "outputs": [],
      "stateMutability": "payable",
      "type": "function",
      "payable": true
    },
    {
      "inputs": [
        {
          "internalType": "uint256",
          "name": "_eventId",
          "type": "uint256"
        }
      ],
      "name": "cancelEvent",
      "outputs": [],
      "stateMutability": "nonpayable",
      "type": "function"
    },
    {
      "inputs": [
        {
          "internalType": "uint256",
          "name": "_eventId",
          "type": "uint256"
        }
      ],
      "name": "withdrawFunds",
      "outputs": [],
      "stateMutability": "nonpayable",
      "type": "function"
    }
  ],
  "bytecode": "0x608060405234801561001057600080fd5b50611819806100206000396000f3fe6080604052600436106100705760003560e01c80633f69babd1161004e5780633f69babd146100f357806371be2e4a146101135780637d51d21414610135578063eba655a71461016557610070565b80630b79143014610075578063155dd5ee146100b157806332d40ed3146100d3575b600080fd5b34801561008157600080fd5b506100956100903660046111aa565b610178565b6040516100a897969594939291906112b1565b60405180910390f35b3480156100bd57600080fd5b506100d16100cc3660046111aa565b610491565b005b3480156100df57600080fd5b506100d16100ee366004611069565b6105d0565b3480156100ff57600080fd5b506100d161010e3660046111aa565b610845565b34801561011f57600080fd5b5061012861090f565b6040516100a891906116d3565b34801561014157600080fd5b506101556101503660046111aa565b610915565b6040516100a89493929190611356565b6100d16101733660046111c2565b610cb8565b600060208190529081526040902080546001820180546001600160a01b0390921692916101a490611761565b80601f01602080910402602001604051908101604052809291908181526020018280546101d090611761565b801561021d5780601f106101f25761010080835404028352916020019161021d565b820191906000526020600020905b81548152906001019060200180831161020057829003601f168201915b50505050509080600201805461023290611761565b80601f016020809104026020016040519081016040528092919081815260200182805461025e90611761565b80156102ab5780601f10610280576101008083540402835291602001916102ab565b820191906000526020600020905b81548152906001019060200180831161028e57829003601f168201915b505050505090806003015490806004016040518060600160405290816000820180546102d690611761565b80601f016020809104026020016040519081016040528092919081815260200182805461030290611761565b801561034f5780601f106103245761010080835404028352916020019161034f565b820191906000526020600020905b81548152906001019060200180831161033257829003601f168201915b5050505050815260200160018201805461036890611761565b80601f016020809104026020016040519081016040528092919081815260200182805461039490611761565b80156103e15780601f106103b6576101008083540402835291602001916103e1565b820191906000526020600020905b8154815290600101906020018083116103c457829003601f168201915b505050505081526020016002820180546103fa90611761565b80601f016020809104026020016040519081016040528092919081815260200182805461042690611761565b80156104735780601f1061044857610100808354040283529160200191610473565b820191906000526020600020905b81548152906001019060200180831161045657829003601f168201915b505050919092525050506008820154600990920154909160ff169087565b60008181526020819052604090205481906001600160a01b031633146104d25760405162461bcd60e51b81526004016104c990611593565b60405180910390fd5b6000828152602081905260409020600881015460ff16156105055760405162461bcd60e51b81526004016104c990611654565b80600301544210156105295760405162461bcd60e51b81526004016104c9906115db565b600081600901541161054d5760405162461bcd60e51b81526004016104c990611490565b6009810180546000918290556040519091339183156108fc0291849190818181858888f19350505050158015610587573d6000803e3d6000fd5b50336001600160a01b0316847ff440aec6b52895984d061d622e6edeba6210f7c3e059be920663140c084560d7836040516105c291906116d3565b60405180910390a350505050565b815183511480156105e2575080518251145b6105fe5760405162461bcd60e51b81526004016104c990611539565b42871161061d5760405162461bcd60e51b81526004016104c9906114be565b6001805460009081526020818152604090912080546001600160a01b031916331781558b5190926106559290840191908d0190610ea4565b50885161066b90600283019060208c0190610ea4565b50600381018890556040805160608101825288815260208082018990529181018790528851909160048401916106a6918391908c0190610ea4565b5060208281015180516106bf9260018501920190610ea4565b50604082015180516106db916002840191602090910190610ea4565b50505060088101805460ff1916600117905560005b84518110156107f45781600701604051806080016040528087848151811061072857634e487b7160e01b600052603260045260246000fd5b6020026020010151815260200186848151811061075557634e487b7160e01b600052603260045260246000fd5b6020026020010151815260200185848151811061078257634e487b7160e01b600052603260045260246000fd5b60209081029190910181015182526000918101829052835460018101855593825290819020825180519394600402909101926107c19284920190610ea4565b506020820151600182015560408201516002820155606090910151600390910155806107ec8161179c565b9150506106f0565b506001546040513391907fe43349c008949cf6b65249356e6f918d4aaa0ca79f2b1166df4a4a98c9c16de290600090a3600180549060006108348361179c565b919050555050505050505050505050565b60008181526020819052604090205481906001600160a01b0316331461087d5760405162461bcd60e51b81526004016104c990611593565b60008281526020819052604090206009810154156108ad5760405162461bcd60e51b81526004016104c9906114f3565b600881015460ff166108d15760405162461bcd60e51b81526004016104c990611422565b60088101805460ff19169055604051339084907fa50dd1924bc5216776bc3d10280c41f329c629d8defd55e6a5979b04c98a5bc390600090a3505050565b60015481565b600081815260208190526040902060078101546060918291829182918067ffffffffffffffff81111561095857634e487b7160e01b600052604160045260246000fd5b60405190808252806020026020018201604052801561098b57816020015b60608152602001906001900390816109765790505b5095508067ffffffffffffffff8111156109b557634e487b7160e01b600052604160045260246000fd5b6040519080825280602002602001820160405280156109de578160200160208202803683370190505b5094508067ffffffffffffffff811115610a0857634e487b7160e01b600052604160045260246000fd5b604051908082528060200260200182016040528015610a31578160200160208202803683370190505b5093508067ffffffffffffffff811115610a5b57634e487b7160e01b600052604160045260246000fd5b604051908082528060200260200182016040528015610a84578160200160208202803683370190505b50925060005b81811015610cae57826007018181548110610ab557634e487b7160e01b600052603260045260246000fd5b90600052602060002090600402016000018054610ad190611761565b80601f0160208091040260200160405190810160405280929190818152602001828054610afd90611761565b8015610b4a5780601f10610b1f57610100808354040283529160200191610b4a565b820191906000526020600020905b815481529060010190602001808311610b2d57829003601f168201915b5050505050878281518110610b6f57634e487b7160e01b600052603260045260246000fd5b6020026020010181905250826007018181548110610b9d57634e487b7160e01b600052603260045260246000fd5b906000526020600020906004020160010154868281518110610bcf57634e487b7160e01b600052603260045260246000fd5b602002602001018181525050826007018181548110610bfe57634e487b7160e01b600052603260045260246000fd5b906000526020600020906004020160020154858281518110610c3057634e487b7160e01b600052603260045260246000fd5b602002602001018181525050826007018181548110610c5f57634e487b7160e01b600052603260045260246000fd5b906000526020600020906004020160030154848281518110610c9157634e487b7160e01b600052603260045260246000fd5b602090810291909101015280610ca68161179c565b915050610a8a565b5050509193509193565b6000838152602081905260409020600881015460ff16610cea5760405162461bcd60e51b81526004016104c990611627565b8151835114610d0b5760405162461bcd60e51b81526004016104c99061169e565b6000805b8451811015610e25576000858281518110610d3a57634e487b7160e01b600052603260045260246000fd5b602002602001015190506000858381518110610d6657634e487b7160e01b600052603260045260246000fd5b602002602001015190506000856007018381548110610d9557634e487b7160e01b600052603260045260246000fd5b906000526020600020906004020190508060020154828260030154610dba919061172a565b1115610dd85760405162461bcd60e51b81526004016104c990611459565b818160010154610de89190611742565b610df2908661172a565b945081816003016000828254610e08919061172a565b925050819055505050508080610e1d9061179c565b915050610d0f565b5080341015610e465760405162461bcd60e51b81526004016104c990611565565b80826009016000828254610e5a919061172a565b9091555050604051339086907fc6db8a087835cc59807ce9c3b208dc47b572d67d864ecfe8877d198825648cc290610e9590889088906113f4565b60405180910390a35050505050565b828054610eb090611761565b90600052602060002090601f016020900481019282610ed25760008555610f18565b82601f10610eeb57805160ff1916838001178555610f18565b82800160010185558215610f18579182015b82811115610f18578251825591602001919060010190610efd565b50610f24929150610f28565b5090565b5b80821115610f245760008155600101610f29565b600082601f830112610f4d578081fd5b81356020610f62610f5d83611706565b6116dc565b82815281810190858301855b85811015610f9757610f85898684358b0101610ffe565b84529284019290840190600101610f6e565b5090979650505050505050565b600082601f830112610fb4578081fd5b81356020610fc4610f5d83611706565b8281528181019085830183850287018401881015610fe0578586fd5b855b85811015610f9757813584529284019290840190600101610fe2565b600082601f83011261100e578081fd5b813567ffffffffffffffff811115611028576110286117cd565b61103b601f8201601f19166020016116dc565b81815284602083860101111561104f578283fd5b816020850160208301379081016020019190915292915050565b60008060008060008060008060006101208a8c031215611087578485fd5b893567ffffffffffffffff8082111561109e578687fd5b6110aa8d838e01610ffe565b9a5060208c01359150808211156110bf578687fd5b6110cb8d838e01610ffe565b995060408c0135985060608c01359150808211156110e7578687fd5b6110f38d838e01610ffe565b975060808c0135915080821115611108578687fd5b6111148d838e01610ffe565b965060a08c0135915080821115611129578586fd5b6111358d838e01610ffe565b955060c08c013591508082111561114a578485fd5b6111568d838e01610f3d565b945060e08c013591508082111561116b578384fd5b6111778d838e01610fa4565b93506101008c013591508082111561118d578283fd5b5061119a8c828d01610fa4565b9150509295985092959850929598565b6000602082840312156111bb578081fd5b5035919050565b6000806000606084860312156111d6578283fd5b83359250602084013567ffffffffffffffff808211156111f4578384fd5b61120087838801610fa4565b93506040860135915080821115611215578283fd5b5061122286828701610fa4565b9150509250925092565b6000815180845260208085019450808401835b8381101561125b5781518752958201959082019060010161123f565b509495945050505050565b60008151808452815b8181101561128b5760208185018101518683018201520161126f565b8181111561129c5782602083870101525b50601f01601f19169290920160200192915050565b6001600160a01b038816815260e0602082018190526000906112d590830189611266565b82810360408401526112e78189611266565b9050866060840152828103608084015285516060825261130a6060830182611266565b9050602087015182820360208401526113238282611266565b9150506040870151828203604084015261133d8282611266565b96151560a08601525050505060c0015295945050505050565b6000608082016080835280875180835260a0850191506020925060a0838202860101838a01855b838110156113ab57609f19888403018552611399838351611266565b9486019492509085019060010161137d565b5050858103848701526113be818a61122c565b935050505082810360408401526113d5818661122c565b905082810360608401526113e9818561122c565b979650505050505050565b600060408252611407604083018561122c565b8281036020840152611419818561122c565b95945050505050565b60208082526019908201527f4576656e7420697320616c72656164792063616e63656c656400000000000000604082015260600190565b6020808252601c908201527f4e6f7420656e6f756768207469636b65747320617661696c61626c6500000000604082015260600190565b6020808252601490820152734e6f2066756e647320746f20776974686472617760601b604082015260600190565b6020808252818101527f4576656e742064617465206d75737420626520696e2074686520667574757265604082015260600190565b60208082526026908201527f43616e6e6f742063616e63656c206576656e74206166746572207469636b65746040820152652073616c657360d01b606082015260800190565b6020808252601290820152710a8d2cae440c8c2e8c240dad2e6dac2e8c6d60731b604082015260600190565b602080825260149082015273125b9cdd59999a58da595b9d081c185e5b595b9d60621b604082015260600190565b60208082526028908201527f4f6e6c79206576656e74206f776e65722063616e20706572666f726d20746869604082015267399030b1ba34b7b760c11b606082015260800190565b6020808252602c908201527f43616e206f6e6c792077697468647261772066756e647320616674657220746860408201526b65206576656e74206461746560a01b606082015260800190565b6020808252601390820152724576656e74206973206e6f742061637469766560681b604082015260600190565b6020808252602a908201527f43616e6e6f742077697468647261772066756e64732066726f6d20616e2061636040820152691d1a5d9948195d995b9d60b21b606082015260800190565b6020808252818101527f4d69736d6174636820696e20746965727320616e64207175616e746974696573604082015260600190565b90815260200190565b60405181810167ffffffffffffffff811182821017156116fe576116fe6117cd565b604052919050565b600067ffffffffffffffff821115611720576117206117cd565b5060209081020190565b6000821982111561173d5761173d6117b7565b500190565b600081600019048311821515161561175c5761175c6117b7565b500290565b60028104600182168061177557607f821691505b6020821081141561179657634e487b7160e01b600052602260045260246000fd5b50919050565b60006000198214156117b0576117b06117b7565b5060010190565b634e487b7160e01b600052601160045260246000fd5b634e487b7160e01b600052604160045260246000fdfea2646970667358221220aa4a4f816be20b21014355e39c8770d6b81f4c5306f84a6085584f2a8bd18c0264736f6c63430008000033",
  "immutableReferences": {},
  "source": "// SPDX-License-Identifier: MIT\npragma solidity ^0.8.0;\n\ncontract EventContract {\n    struct Event {\n        address owner;\n        string posterUrl;\n        string name;\n        uint256 date;\n        Venue venue;\n        Ticket[] tiers;\n        bool isActive;\n        uint256 revenue;\n    }\n\n    struct Venue {\n        string name;\n        string latitude;\n        string longitude;\n    }\n\n    struct Ticket {\n        string name;\n        uint256 price; // in Wei\n        uint256 totalTickets;\n        uint256 ticketsSold;\n    }\n\n    mapping(uint256 => Event) public events;\n    uint256 public eventCount;\n\n    event EventCreated(uint256 indexed eventId, address indexed owner);\n    event TicketPurchased(uint256 indexed eventId, uint256[] tierIndexes, uint256[] quantities, address indexed buyer);\n    event EventCanceled(uint256 indexed eventId, address indexed owner);\n    event FundsWithdrawn(uint256 indexed eventId, address indexed owner, uint256 amount);\n\n    modifier onlyOwner(uint256 eventId) {\n        require(events[eventId].owner == msg.sender, \"Only event owner can perform this action\");\n        _;\n    }\n\n    function createEvent(\n        string memory _posterUrl,\n        string memory _name,\n        uint256 _date,\n        string memory _venueName,\n        string memory _latitude,\n        string memory _longitude,\n        string[] memory _tierNames,\n        uint256[] memory _tierPrices,\n        uint256[] memory _tierTicketsCounts\n    ) \n    public {\n        require(_tierNames.length == _tierPrices.length && _tierPrices.length == _tierTicketsCounts.length, \"Tier data mismatch\");\n        require(_date > block.timestamp, \"Event date must be in the future\");\n\n        Event storage newEvent = events[eventCount];\n        newEvent.owner = msg.sender;\n        newEvent.posterUrl = _posterUrl;\n        newEvent.name = _name;\n        newEvent.date = _date; // Store as UNIX timestamp\n        newEvent.venue = Venue(_venueName, _latitude, _longitude);\n        newEvent.isActive = true;\n\n        for (uint256 i = 0; i < _tierNames.length; i++) {\n            newEvent.tiers.push(Ticket({\n                name: _tierNames[i],\n                price: _tierPrices[i],\n                totalTickets: _tierTicketsCounts[i],\n                ticketsSold: 0\n            }));\n        }\n\n        emit EventCreated(eventCount, msg.sender);\n        eventCount++;\n    }\n\n    function getEventTiers(uint256 _eventId) \n    public view returns (\n        string[] memory names,\n        uint256[] memory prices,\n        uint256[] memory totalTickets,\n        uint256[] memory ticketsSold\n    ) {\n        Event storage _event = events[_eventId];\n        uint256 tierCount = _event.tiers.length;\n\n        names = new string[](tierCount);\n        prices = new uint256[](tierCount);\n        totalTickets = new uint256[](tierCount);\n        ticketsSold = new uint256[](tierCount);\n\n        for (uint256 i = 0; i < tierCount; i++) {\n            names[i] = _event.tiers[i].name;\n            prices[i] = _event.tiers[i].price;\n            totalTickets[i] = _event.tiers[i].totalTickets;\n            ticketsSold[i] = _event.tiers[i].ticketsSold;\n        }\n\n        return (names, prices, totalTickets, ticketsSold);\n    }\n\n    function buyTickets(\n        uint256 _eventId, \n        uint256[] memory _tierIndexes, \n        uint256[] memory _addedQuantities\n    ) \n    public payable {\n        Event storage _event = events[_eventId];\n        require(_event.isActive, \"Event is not active\");\n        require(_tierIndexes.length == _addedQuantities.length, \"Mismatch in tiers and quantities\");\n\n        uint256 totalCost = 0;\n\n        for (uint256 i = 0; i < _tierIndexes.length; i++) {\n            uint256 _tierIndex = _tierIndexes[i];\n            uint256 _quantity = _addedQuantities[i];\n\n            Ticket storage ticket = _event.tiers[_tierIndex];\n            require(ticket.ticketsSold + _quantity <= ticket.totalTickets, \"Not enough tickets available\");\n            \n            totalCost += ticket.price * _quantity;\n            ticket.ticketsSold += _quantity;\n        }\n\n        require(msg.value >= totalCost, \"Insufficient payment\");\n\n        _event.revenue += totalCost;\n        \n        emit TicketPurchased(_eventId, _tierIndexes, _addedQuantities, msg.sender);\n    }\n\n    function cancelEvent(uint256 _eventId) \n    public onlyOwner(_eventId) {\n        Event storage _event = events[_eventId];\n        require(_event.revenue == 0, \"Cannot cancel event after ticket sales\");\n        require(_event.isActive, \"Event is already canceled\");\n\n        _event.isActive = false;\n\n        emit EventCanceled(_eventId, msg.sender);\n    }\n\n    function withdrawFunds(uint256 _eventId) \n    public onlyOwner(_eventId) {\n        Event storage _event = events[_eventId];\n        require(!_event.isActive, \"Cannot withdraw funds from an active event\");\n        require(block.timestamp >= _event.date, \"Can only withdraw funds after the event date\");\n        require(_event.revenue > 0, \"No funds to withdraw\");\n\n        uint256 balance = _event.revenue;\n        _event.revenue = 0;\n\n        payable(msg.sender).transfer(balance);\n\n        emit FundsWithdrawn(_eventId, msg.sender, balance);\n    }\n}\n",
  "sourcePath": "C:\\Users\\Maigua\\Desktop\\eventverse\\client\\src\\contracts\\EventContract.sol",
  "compiler": {
    "name": "solc",
    "version": "0.8.0+commit.c7dfd78e.Emscripten.clang"
  },
  "schemaVersion": "3.4.16",
  "updatedAt": "2025-01-14T12:47:46.613Z",
  "networkType": "ethereum",
  "devdoc": {
    "kind": "dev",
    "methods": {},
    "version": 1
  },
  "userdoc": {
    "kind": "user",
    "methods": {},
    "version": 1
  }
}