{
  "contractName": "EventContract",
  "abi": [
    {
      "anonymous": false,
      "inputs": [
        {
          "indexed": true,
          "internalType": "uint256",
          "name": "eventId",
          "type": "uint256"
        },
        {
          "indexed": true,
          "internalType": "address",
          "name": "owner",
          "type": "address"
        }
      ],
      "name": "EventCreated",
      "type": "event"
    },
    {
      "anonymous": false,
      "inputs": [
        {
          "indexed": true,
          "internalType": "uint256",
          "name": "eventId",
          "type": "uint256"
        },
        {
          "indexed": false,
          "internalType": "uint256[]",
          "name": "tierIndexes",
          "type": "uint256[]"
        },
        {
          "indexed": false,
          "internalType": "uint256[]",
          "name": "quantities",
          "type": "uint256[]"
        },
        {
          "indexed": true,
          "internalType": "address",
          "name": "buyer",
          "type": "address"
        }
      ],
      "name": "TicketPurchased",
      "type": "event"
    },
    {
      "inputs": [],
      "name": "eventCount",
      "outputs": [
        {
          "internalType": "uint256",
          "name": "",
          "type": "uint256"
        }
      ],
      "stateMutability": "view",
      "type": "function",
      "constant": true
    },
    {
      "inputs": [
        {
          "internalType": "uint256",
          "name": "",
          "type": "uint256"
        }
      ],
      "name": "events",
      "outputs": [
        {
          "internalType": "address",
          "name": "owner",
          "type": "address"
        },
        {
          "internalType": "string",
          "name": "posterUrl",
          "type": "string"
        },
        {
          "internalType": "string",
          "name": "name",
          "type": "string"
        },
        {
          "internalType": "string",
          "name": "date",
          "type": "string"
        },
        {
          "components": [
            {
              "internalType": "string",
              "name": "name",
              "type": "string"
            },
            {
              "internalType": "string",
              "name": "latitude",
              "type": "string"
            },
            {
              "internalType": "string",
              "name": "longitude",
              "type": "string"
            }
          ],
          "internalType": "struct EventContract.Venue",
          "name": "venue",
          "type": "tuple"
        },
        {
          "internalType": "bool",
          "name": "isActive",
          "type": "bool"
        }
      ],
      "stateMutability": "view",
      "type": "function",
      "constant": true
    },
    {
      "inputs": [
        {
          "internalType": "string",
          "name": "_posterUrl",
          "type": "string"
        },
        {
          "internalType": "string",
          "name": "_name",
          "type": "string"
        },
        {
          "internalType": "string",
          "name": "_date",
          "type": "string"
        },
        {
          "internalType": "string",
          "name": "_venueName",
          "type": "string"
        },
        {
          "internalType": "string",
          "name": "_latitude",
          "type": "string"
        },
        {
          "internalType": "string",
          "name": "_longitude",
          "type": "string"
        },
        {
          "internalType": "string[]",
          "name": "_tierNames",
          "type": "string[]"
        },
        {
          "internalType": "uint256[]",
          "name": "_tierPrices",
          "type": "uint256[]"
        },
        {
          "internalType": "uint256[]",
          "name": "_tierTicketsCounts",
          "type": "uint256[]"
        }
      ],
      "name": "createEvent",
      "outputs": [],
      "stateMutability": "nonpayable",
      "type": "function"
    },
    {
      "inputs": [
        {
          "internalType": "uint256",
          "name": "_eventId",
          "type": "uint256"
        }
      ],
      "name": "getEventTiers",
      "outputs": [
        {
          "internalType": "string[]",
          "name": "names",
          "type": "string[]"
        },
        {
          "internalType": "uint256[]",
          "name": "prices",
          "type": "uint256[]"
        },
        {
          "internalType": "uint256[]",
          "name": "totalTickets",
          "type": "uint256[]"
        },
        {
          "internalType": "uint256[]",
          "name": "ticketsSold",
          "type": "uint256[]"
        }
      ],
      "stateMutability": "view",
      "type": "function",
      "constant": true
    },
    {
      "inputs": [
        {
          "internalType": "uint256",
          "name": "eventId",
          "type": "uint256"
        },
        {
          "internalType": "uint256[]",
          "name": "tierIndexes",
          "type": "uint256[]"
        },
        {
          "internalType": "uint256[]",
          "name": "quantities",
          "type": "uint256[]"
        }
      ],
      "name": "buyTickets",
      "outputs": [],
      "stateMutability": "payable",
      "type": "function",
      "payable": true
    },
    {
      "inputs": [
        {
          "internalType": "uint256",
          "name": "_eventId",
          "type": "uint256"
        }
      ],
      "name": "deactivateEvent",
      "outputs": [],
      "stateMutability": "nonpayable",
      "type": "function"
    },
    {
      "inputs": [
        {
          "internalType": "uint256",
          "name": "eventId",
          "type": "uint256"
        }
      ],
      "name": "withdrawFunds",
      "outputs": [],
      "stateMutability": "nonpayable",
      "type": "function"
    }
  ],
  "bytecode": "0x608060405234801561001057600080fd5b506115e7806100206000396000f3fe6080604052600436106100705760003560e01c806371be2e4a1161004e57806371be2e4a146100f25780637d51d21414610114578063957a632e14610144578063eba655a71461016457610070565b80630b79143014610075578063155dd5ee146100b05780631d4115a2146100d2575b600080fd5b34801561008157600080fd5b506100956100903660046110e1565b610177565b6040516100a7969594939291906111e8565b60405180910390f35b3480156100bc57600080fd5b506100d06100cb3660046110e1565b610510565b005b3480156100de57600080fd5b506100d06100ed366004610f86565b610586565b3480156100fe57600080fd5b506101076107eb565b6040516100a791906114a1565b34801561012057600080fd5b5061013461012f3660046110e1565b6107f1565b6040516100a7949392919061129a565b34801561015057600080fd5b506100d061015f3660046110e1565b610b94565b6100d06101723660046110f9565b610be8565b600060208190529081526040902080546001820180546001600160a01b0390921692916101a39061152f565b80601f01602080910402602001604051908101604052809291908181526020018280546101cf9061152f565b801561021c5780601f106101f15761010080835404028352916020019161021c565b820191906000526020600020905b8154815290600101906020018083116101ff57829003601f168201915b5050505050908060020180546102319061152f565b80601f016020809104026020016040519081016040528092919081815260200182805461025d9061152f565b80156102aa5780601f1061027f576101008083540402835291602001916102aa565b820191906000526020600020905b81548152906001019060200180831161028d57829003601f168201915b5050505050908060030180546102bf9061152f565b80601f01602080910402602001604051908101604052809291908181526020018280546102eb9061152f565b80156103385780601f1061030d57610100808354040283529160200191610338565b820191906000526020600020905b81548152906001019060200180831161031b57829003601f168201915b5050505050908060040160405180606001604052908160008201805461035d9061152f565b80601f01602080910402602001604051908101604052809291908181526020018280546103899061152f565b80156103d65780601f106103ab576101008083540402835291602001916103d6565b820191906000526020600020905b8154815290600101906020018083116103b957829003601f168201915b505050505081526020016001820180546103ef9061152f565b80601f016020809104026020016040519081016040528092919081815260200182805461041b9061152f565b80156104685780601f1061043d57610100808354040283529160200191610468565b820191906000526020600020905b81548152906001019060200180831161044b57829003601f168201915b505050505081526020016002820180546104819061152f565b80601f01602080910402602001604051908101604052809291908181526020018280546104ad9061152f565b80156104fa5780601f106104cf576101008083540402835291602001916104fa565b820191906000526020600020905b8154815290600101906020018083116104dd57829003601f168201915b5050509190925250505060089091015460ff1686565b60008181526020819052604090205481906001600160a01b031633146105515760405162461bcd60e51b8152600401610548906113f7565b60405180910390fd5b6040514790339082156108fc029083906000818181858888f19350505050158015610580573d6000803e3d6000fd5b50505050565b81518351148015610598575080518251145b6105b45760405162461bcd60e51b81526004016105489061139d565b6001805460009081526020818152604090912080546001600160a01b031916331781558b5190926105ec9290840191908d0190610dc1565b50885161060290600283019060208c0190610dc1565b50875161061890600383019060208b0190610dc1565b5060408051606081018252888152602080820189905291810187905288519091600484019161064c918391908c0190610dc1565b5060208281015180516106659260018501920190610dc1565b5060408201518051610681916002840191602090910190610dc1565b50505060088101805460ff1916600117905560005b845181101561079a578160070160405180608001604052808784815181106106ce57634e487b7160e01b600052603260045260246000fd5b602002602001015181526020018684815181106106fb57634e487b7160e01b600052603260045260246000fd5b6020026020010151815260200185848151811061072857634e487b7160e01b600052603260045260246000fd5b60209081029190910181015182526000918101829052835460018101855593825290819020825180519394600402909101926107679284920190610dc1565b506020820151600182015560408201516002820155606090910151600390910155806107928161156a565b915050610696565b506001546040513391907fe43349c008949cf6b65249356e6f918d4aaa0ca79f2b1166df4a4a98c9c16de290600090a3600180549060006107da8361156a565b919050555050505050505050505050565b60015481565b600081815260208190526040902060078101546060918291829182918067ffffffffffffffff81111561083457634e487b7160e01b600052604160045260246000fd5b60405190808252806020026020018201604052801561086757816020015b60608152602001906001900390816108525790505b5095508067ffffffffffffffff81111561089157634e487b7160e01b600052604160045260246000fd5b6040519080825280602002602001820160405280156108ba578160200160208202803683370190505b5094508067ffffffffffffffff8111156108e457634e487b7160e01b600052604160045260246000fd5b60405190808252806020026020018201604052801561090d578160200160208202803683370190505b5093508067ffffffffffffffff81111561093757634e487b7160e01b600052604160045260246000fd5b604051908082528060200260200182016040528015610960578160200160208202803683370190505b50925060005b81811015610b8a5782600701818154811061099157634e487b7160e01b600052603260045260246000fd5b906000526020600020906004020160000180546109ad9061152f565b80601f01602080910402602001604051908101604052809291908181526020018280546109d99061152f565b8015610a265780601f106109fb57610100808354040283529160200191610a26565b820191906000526020600020905b815481529060010190602001808311610a0957829003601f168201915b5050505050878281518110610a4b57634e487b7160e01b600052603260045260246000fd5b6020026020010181905250826007018181548110610a7957634e487b7160e01b600052603260045260246000fd5b906000526020600020906004020160010154868281518110610aab57634e487b7160e01b600052603260045260246000fd5b602002602001018181525050826007018181548110610ada57634e487b7160e01b600052603260045260246000fd5b906000526020600020906004020160020154858281518110610b0c57634e487b7160e01b600052603260045260246000fd5b602002602001018181525050826007018181548110610b3b57634e487b7160e01b600052603260045260246000fd5b906000526020600020906004020160030154848281518110610b6d57634e487b7160e01b600052603260045260246000fd5b602090810291909101015280610b828161156a565b915050610966565b5050509193509193565b60008181526020819052604090205481906001600160a01b03163314610bcc5760405162461bcd60e51b8152600401610548906113f7565b506000908152602081905260409020600801805460ff19169055565b6000838152602081905260409020600881015460ff16610c1a5760405162461bcd60e51b81526004016105489061143f565b8151835114610c3b5760405162461bcd60e51b81526004016105489061146c565b6000805b8451811015610d55576000858281518110610c6a57634e487b7160e01b600052603260045260246000fd5b602002602001015190506000858381518110610c9657634e487b7160e01b600052603260045260246000fd5b602002602001015190506000856007018381548110610cc557634e487b7160e01b600052603260045260246000fd5b906000526020600020906004020190508060020154828260030154610cea91906114f8565b1115610d085760405162461bcd60e51b815260040161054890611366565b818160010154610d189190611510565b610d2290866114f8565b945081816003016000828254610d3891906114f8565b925050819055505050508080610d4d9061156a565b915050610c3f565b5080341015610d765760405162461bcd60e51b8152600401610548906113c9565b336001600160a01b0316857fc6db8a087835cc59807ce9c3b208dc47b572d67d864ecfe8877d198825648cc28686604051610db2929190611338565b60405180910390a35050505050565b828054610dcd9061152f565b90600052602060002090601f016020900481019282610def5760008555610e35565b82601f10610e0857805160ff1916838001178555610e35565b82800160010185558215610e35579182015b82811115610e35578251825591602001919060010190610e1a565b50610e41929150610e45565b5090565b5b80821115610e415760008155600101610e46565b600082601f830112610e6a578081fd5b81356020610e7f610e7a836114d4565b6114aa565b82815281810190858301855b85811015610eb457610ea2898684358b0101610f1b565b84529284019290840190600101610e8b565b5090979650505050505050565b600082601f830112610ed1578081fd5b81356020610ee1610e7a836114d4565b8281528181019085830183850287018401881015610efd578586fd5b855b85811015610eb457813584529284019290840190600101610eff565b600082601f830112610f2b578081fd5b813567ffffffffffffffff811115610f4557610f4561159b565b610f58601f8201601f19166020016114aa565b818152846020838601011115610f6c578283fd5b816020850160208301379081016020019190915292915050565b60008060008060008060008060006101208a8c031215610fa4578485fd5b893567ffffffffffffffff80821115610fbb578687fd5b610fc78d838e01610f1b565b9a5060208c0135915080821115610fdc578687fd5b610fe88d838e01610f1b565b995060408c0135915080821115610ffd578687fd5b6110098d838e01610f1b565b985060608c013591508082111561101e578687fd5b61102a8d838e01610f1b565b975060808c013591508082111561103f578687fd5b61104b8d838e01610f1b565b965060a08c0135915080821115611060578586fd5b61106c8d838e01610f1b565b955060c08c0135915080821115611081578485fd5b61108d8d838e01610e5a565b945060e08c01359150808211156110a2578384fd5b6110ae8d838e01610ec1565b93506101008c01359150808211156110c4578283fd5b506110d18c828d01610ec1565b9150509295985092959850929598565b6000602082840312156110f2578081fd5b5035919050565b60008060006060848603121561110d578283fd5b83359250602084013567ffffffffffffffff8082111561112b578384fd5b61113787838801610ec1565b9350604086013591508082111561114c578283fd5b5061115986828701610ec1565b9150509250925092565b6000815180845260208085019450808401835b8381101561119257815187529582019590820190600101611176565b509495945050505050565b60008151808452815b818110156111c2576020818501810151868301820152016111a6565b818111156111d35782602083870101525b50601f01601f19169290920160200192915050565b6001600160a01b038716815260c06020820181905260009061120c9083018861119d565b828103604084015261121e818861119d565b90508281036060840152611232818761119d565b9050828103608084015284516060825261124f606083018261119d565b905060208601518282036020840152611268828261119d565b91505060408601518282036040840152611282828261119d565b935050505082151560a0830152979650505050505050565b6000608082016080835280875180835260a0850191506020925060a0838202860101838a01855b838110156112ef57609f198884030185526112dd83835161119d565b948601949250908501906001016112c1565b505085810384870152611302818a611163565b935050505082810360408401526113198186611163565b9050828103606084015261132d8185611163565b979650505050505050565b60006040825261134b6040830185611163565b828103602084015261135d8185611163565b95945050505050565b6020808252601c908201527f4e6f7420656e6f756768207469636b65747320617661696c61626c6500000000604082015260600190565b6020808252601290820152710a8d2cae440c8c2e8c240dad2e6dac2e8c6d60731b604082015260600190565b602080825260149082015273125b9cdd59999a58da595b9d081c185e5b595b9d60621b604082015260600190565b60208082526028908201527f4f6e6c79206576656e74206f776e65722063616e20706572666f726d20746869604082015267399030b1ba34b7b760c11b606082015260800190565b6020808252601390820152724576656e74206973206e6f742061637469766560681b604082015260600190565b6020808252818101527f4d69736d6174636820696e20746965727320616e64207175616e746974696573604082015260600190565b90815260200190565b60405181810167ffffffffffffffff811182821017156114cc576114cc61159b565b604052919050565b600067ffffffffffffffff8211156114ee576114ee61159b565b5060209081020190565b6000821982111561150b5761150b611585565b500190565b600081600019048311821515161561152a5761152a611585565b500290565b60028104600182168061154357607f821691505b6020821081141561156457634e487b7160e01b600052602260045260246000fd5b50919050565b600060001982141561157e5761157e611585565b5060010190565b634e487b7160e01b600052601160045260246000fd5b634e487b7160e01b600052604160045260246000fdfea2646970667358221220ca19866cabf00c928758bcc75a384f8269a28903998683055c1e6dd7316e4ee464736f6c63430008000033",
  "immutableReferences": {},
  "source": "// SPDX-License-Identifier: MIT\npragma solidity ^0.8.0;\n\ncontract EventContract {\n    struct Event {\n        address owner;\n        string posterUrl;\n        string name;\n        string date;\n        Venue venue;\n        Ticket[] tiers;\n        bool isActive;\n    }\n\n    struct Venue {\n        string name;\n        string latitude;\n        string longitude;\n    }\n\n    struct Ticket {\n        string name;\n        uint256 price; // in Wei\n        uint256 totalTickets;\n        uint256 ticketsSold;\n    }\n\n    mapping(uint256 => Event) public events;\n    uint256 public eventCount;\n\n    event EventCreated(uint256 indexed eventId, address indexed owner);\n    event TicketPurchased(uint256 indexed eventId, uint256[] tierIndexes, uint256[] quantities, address indexed buyer);\n\n    modifier onlyOwner(uint256 eventId) {\n        require(events[eventId].owner == msg.sender, \"Only event owner can perform this action\");\n        _;\n    }\n\n    function createEvent(\n        string memory _posterUrl,\n        string memory _name,\n        string memory _date,\n        string memory _venueName,\n        string memory _latitude,\n        string memory _longitude,\n        string[] memory _tierNames,\n        uint256[] memory _tierPrices,\n        uint256[] memory _tierTicketsCounts\n    ) \n    public {\n        require(_tierNames.length == _tierPrices.length && _tierPrices.length == _tierTicketsCounts.length, \"Tier data mismatch\");\n\n        Event storage newEvent = events[eventCount];\n        newEvent.owner = msg.sender;\n        newEvent.posterUrl = _posterUrl;\n        newEvent.name = _name;\n        newEvent.date = _date;\n        newEvent.venue = Venue(_venueName, _latitude, _longitude);\n        newEvent.isActive = true;\n\n        for (uint256 i = 0; i < _tierNames.length; i++) {\n            newEvent.tiers.push(Ticket({\n                name: _tierNames[i],\n                price: _tierPrices[i],\n                totalTickets: _tierTicketsCounts[i],\n                ticketsSold: 0\n            }));\n        }\n\n        emit EventCreated(eventCount, msg.sender);\n        eventCount++;\n    }\n\n    function getEventTiers(uint256 _eventId) \n    public \n    view \n    returns (\n        string[] memory names,\n        uint256[] memory prices,\n        uint256[] memory totalTickets,\n        uint256[] memory ticketsSold\n    ) {\n        Event storage _event = events[_eventId];\n        uint256 tierCount = _event.tiers.length;\n\n        names = new string[](tierCount);\n        prices = new uint256[](tierCount);\n        totalTickets = new uint256[](tierCount);\n        ticketsSold = new uint256[](tierCount);\n\n        for (uint256 i = 0; i < tierCount; i++) {\n            names[i] = _event.tiers[i].name;\n            prices[i] = _event.tiers[i].price;\n            totalTickets[i] = _event.tiers[i].totalTickets;\n            ticketsSold[i] = _event.tiers[i].ticketsSold;\n        }\n\n        return (names, prices, totalTickets, ticketsSold);\n    }\n\n    function buyTickets(\n        uint256 eventId, \n        uint256[] memory tierIndexes, \n        uint256[] memory quantities\n    ) \n    public \n    payable \n    {\n        Event storage _event = events[eventId];\n        require(_event.isActive, \"Event is not active\");\n        require(tierIndexes.length == quantities.length, \"Mismatch in tiers and quantities\");\n\n        uint256 totalCost = 0;\n\n        for (uint256 i = 0; i < tierIndexes.length; i++) {\n            uint256 tierIndex = tierIndexes[i];\n            uint256 quantity = quantities[i];\n            Ticket storage ticket = _event.tiers[tierIndex];\n\n            require(ticket.ticketsSold + quantity <= ticket.totalTickets, \"Not enough tickets available\");\n            totalCost += ticket.price * quantity;\n            ticket.ticketsSold += quantity;\n        }\n\n        require(msg.value >= totalCost, \"Insufficient payment\");\n\n        // Emit the event with arrays of tier indexes and quantities\n        emit TicketPurchased(eventId, tierIndexes, quantities, msg.sender);\n    }\n\n    function deactivateEvent(uint256 _eventId) \n    public onlyOwner(_eventId) {\n        events[_eventId].isActive = false;\n    }\n\n    function withdrawFunds(uint eventId) \n    public onlyOwner(eventId) {\n        uint balance = address(this).balance;\n        payable(msg.sender).transfer(balance);\n    }\n}\n",
  "sourcePath": "C:\\Users\\Maigua\\Desktop\\eventverse\\client\\src\\contracts\\EventContract.sol",
  "compiler": {
    "name": "solc",
    "version": "0.8.0+commit.c7dfd78e.Emscripten.clang"
  },
  "schemaVersion": "3.4.16",
  "updatedAt": "2025-01-13T12:17:30.336Z",
  "networkType": "ethereum",
  "devdoc": {
    "kind": "dev",
    "methods": {},
    "version": 1
  },
  "userdoc": {
    "kind": "user",
    "methods": {},
    "version": 1
  }
}