{
  "contractName": "EventContract",
  "abi": [
    {
      "anonymous": false,
      "inputs": [
        {
          "indexed": true,
          "internalType": "uint256",
          "name": "eventId",
          "type": "uint256"
        },
        {
          "indexed": true,
          "internalType": "address",
          "name": "owner",
          "type": "address"
        }
      ],
      "name": "EventCreated",
      "type": "event"
    },
    {
      "anonymous": false,
      "inputs": [
        {
          "indexed": true,
          "internalType": "uint256",
          "name": "eventId",
          "type": "uint256"
        },
        {
          "indexed": false,
          "internalType": "uint256",
          "name": "tierIndex",
          "type": "uint256"
        },
        {
          "indexed": false,
          "internalType": "uint256",
          "name": "quantity",
          "type": "uint256"
        },
        {
          "indexed": true,
          "internalType": "address",
          "name": "buyer",
          "type": "address"
        }
      ],
      "name": "TicketPurchased",
      "type": "event"
    },
    {
      "inputs": [],
      "name": "eventCount",
      "outputs": [
        {
          "internalType": "uint256",
          "name": "",
          "type": "uint256"
        }
      ],
      "stateMutability": "view",
      "type": "function",
      "constant": true
    },
    {
      "inputs": [
        {
          "internalType": "uint256",
          "name": "",
          "type": "uint256"
        }
      ],
      "name": "events",
      "outputs": [
        {
          "internalType": "address",
          "name": "owner",
          "type": "address"
        },
        {
          "internalType": "string",
          "name": "posterUrl",
          "type": "string"
        },
        {
          "internalType": "string",
          "name": "name",
          "type": "string"
        },
        {
          "internalType": "string",
          "name": "date",
          "type": "string"
        },
        {
          "components": [
            {
              "internalType": "string",
              "name": "name",
              "type": "string"
            },
            {
              "internalType": "string",
              "name": "latitude",
              "type": "string"
            },
            {
              "internalType": "string",
              "name": "longitude",
              "type": "string"
            }
          ],
          "internalType": "struct EventContract.Venue",
          "name": "venue",
          "type": "tuple"
        },
        {
          "internalType": "bool",
          "name": "isActive",
          "type": "bool"
        }
      ],
      "stateMutability": "view",
      "type": "function",
      "constant": true
    },
    {
      "inputs": [
        {
          "internalType": "string",
          "name": "_posterUrl",
          "type": "string"
        },
        {
          "internalType": "string",
          "name": "_name",
          "type": "string"
        },
        {
          "internalType": "string",
          "name": "_date",
          "type": "string"
        },
        {
          "internalType": "string",
          "name": "_venueName",
          "type": "string"
        },
        {
          "internalType": "string",
          "name": "_latitude",
          "type": "string"
        },
        {
          "internalType": "string",
          "name": "_longitude",
          "type": "string"
        },
        {
          "internalType": "string[]",
          "name": "_tierNames",
          "type": "string[]"
        },
        {
          "internalType": "uint256[]",
          "name": "_prices",
          "type": "uint256[]"
        },
        {
          "internalType": "uint256[]",
          "name": "_ticketCounts",
          "type": "uint256[]"
        }
      ],
      "name": "createEvent",
      "outputs": [],
      "stateMutability": "nonpayable",
      "type": "function"
    },
    {
      "inputs": [
        {
          "internalType": "uint256",
          "name": "_eventId",
          "type": "uint256"
        }
      ],
      "name": "getEventTiers",
      "outputs": [
        {
          "internalType": "string[]",
          "name": "names",
          "type": "string[]"
        },
        {
          "internalType": "uint256[]",
          "name": "prices",
          "type": "uint256[]"
        },
        {
          "internalType": "uint256[]",
          "name": "totalTickets",
          "type": "uint256[]"
        },
        {
          "internalType": "uint256[]",
          "name": "ticketsSold",
          "type": "uint256[]"
        }
      ],
      "stateMutability": "view",
      "type": "function",
      "constant": true
    },
    {
      "inputs": [
        {
          "internalType": "uint256",
          "name": "_eventId",
          "type": "uint256"
        },
        {
          "internalType": "uint256",
          "name": "_tierIndex",
          "type": "uint256"
        },
        {
          "internalType": "uint256",
          "name": "_quantity",
          "type": "uint256"
        }
      ],
      "name": "buyTickets",
      "outputs": [],
      "stateMutability": "payable",
      "type": "function",
      "payable": true
    },
    {
      "inputs": [
        {
          "internalType": "uint256",
          "name": "_eventId",
          "type": "uint256"
        }
      ],
      "name": "deactivateEvent",
      "outputs": [],
      "stateMutability": "nonpayable",
      "type": "function"
    },
    {
      "inputs": [
        {
          "internalType": "uint256",
          "name": "eventId",
          "type": "uint256"
        }
      ],
      "name": "withdrawFunds",
      "outputs": [],
      "stateMutability": "nonpayable",
      "type": "function"
    }
  ],
  "bytecode": "0x608060405234801561001057600080fd5b506115a4806100206000396000f3fe6080604052600436106100705760003560e01c806371be2e4a1161004e57806371be2e4a146100f25780637d51d21414610114578063957a632e14610144578063c9a450df1461016457610070565b80630b79143014610075578063155dd5ee146100b05780631d4115a2146100d2575b600080fd5b34801561008157600080fd5b50610095610090366004611098565b610177565b6040516100a796959493929190611160565b60405180910390f35b3480156100bc57600080fd5b506100d06100cb366004611098565b610510565b005b3480156100de57600080fd5b506100d06100ed366004610f3d565b610586565b3480156100fe57600080fd5b506101076107eb565b6040516100a79190611450565b34801561012057600080fd5b5061013461012f366004611098565b6107f1565b6040516100a79493929190611212565b34801561015057600080fd5b506100d061015f366004611098565b610b94565b6100d06101723660046110b0565b610be8565b600060208190529081526040902080546001820180546001600160a01b0390921692916101a3906114ec565b80601f01602080910402602001604051908101604052809291908181526020018280546101cf906114ec565b801561021c5780601f106101f15761010080835404028352916020019161021c565b820191906000526020600020905b8154815290600101906020018083116101ff57829003601f168201915b505050505090806002018054610231906114ec565b80601f016020809104026020016040519081016040528092919081815260200182805461025d906114ec565b80156102aa5780601f1061027f576101008083540402835291602001916102aa565b820191906000526020600020905b81548152906001019060200180831161028d57829003601f168201915b5050505050908060030180546102bf906114ec565b80601f01602080910402602001604051908101604052809291908181526020018280546102eb906114ec565b80156103385780601f1061030d57610100808354040283529160200191610338565b820191906000526020600020905b81548152906001019060200180831161031b57829003601f168201915b5050505050908060040160405180606001604052908160008201805461035d906114ec565b80601f0160208091040260200160405190810160405280929190818152602001828054610389906114ec565b80156103d65780601f106103ab576101008083540402835291602001916103d6565b820191906000526020600020905b8154815290600101906020018083116103b957829003601f168201915b505050505081526020016001820180546103ef906114ec565b80601f016020809104026020016040519081016040528092919081815260200182805461041b906114ec565b80156104685780601f1061043d57610100808354040283529160200191610468565b820191906000526020600020905b81548152906001019060200180831161044b57829003601f168201915b50505050508152602001600282018054610481906114ec565b80601f01602080910402602001604051908101604052809291908181526020018280546104ad906114ec565b80156104fa5780601f106104cf576101008083540402835291602001916104fa565b820191906000526020600020905b8154815290600101906020018083116104dd57829003601f168201915b5050509190925250505060089091015460ff1686565b60008181526020819052604090205481906001600160a01b031633146105515760405162461bcd60e51b8152600401610548906113ad565b60405180910390fd5b6040514790339082156108fc029083906000818181858888f19350505050158015610580573d6000803e3d6000fd5b50505050565b81518351148015610598575080518251145b6105b45760405162461bcd60e51b81526004016105489061133f565b6001805460009081526020818152604090912080546001600160a01b031916331781558b5190926105ec9290840191908d0190610d78565b50885161060290600283019060208c0190610d78565b50875161061890600383019060208b0190610d78565b5060408051606081018252888152602080820189905291810187905288519091600484019161064c918391908c0190610d78565b5060208281015180516106659260018501920190610d78565b5060408201518051610681916002840191602090910190610d78565b50505060088101805460ff1916600117905560005b845181101561079a578160070160405180608001604052808784815181106106ce57634e487b7160e01b600052603260045260246000fd5b602002602001015181526020018684815181106106fb57634e487b7160e01b600052603260045260246000fd5b6020026020010151815260200185848151811061072857634e487b7160e01b600052603260045260246000fd5b60209081029190910181015182526000918101829052835460018101855593825290819020825180519394600402909101926107679284920190610d78565b5060208201516001820155604082015160028201556060909101516003909101558061079281611527565b915050610696565b506001546040513391907fe43349c008949cf6b65249356e6f918d4aaa0ca79f2b1166df4a4a98c9c16de290600090a3600180549060006107da83611527565b919050555050505050505050505050565b60015481565b600081815260208190526040902060078101546060918291829182918067ffffffffffffffff81111561083457634e487b7160e01b600052604160045260246000fd5b60405190808252806020026020018201604052801561086757816020015b60608152602001906001900390816108525790505b5095508067ffffffffffffffff81111561089157634e487b7160e01b600052604160045260246000fd5b6040519080825280602002602001820160405280156108ba578160200160208202803683370190505b5094508067ffffffffffffffff8111156108e457634e487b7160e01b600052604160045260246000fd5b60405190808252806020026020018201604052801561090d578160200160208202803683370190505b5093508067ffffffffffffffff81111561093757634e487b7160e01b600052604160045260246000fd5b604051908082528060200260200182016040528015610960578160200160208202803683370190505b50925060005b81811015610b8a5782600701818154811061099157634e487b7160e01b600052603260045260246000fd5b906000526020600020906004020160000180546109ad906114ec565b80601f01602080910402602001604051908101604052809291908181526020018280546109d9906114ec565b8015610a265780601f106109fb57610100808354040283529160200191610a26565b820191906000526020600020905b815481529060010190602001808311610a0957829003601f168201915b5050505050878281518110610a4b57634e487b7160e01b600052603260045260246000fd5b6020026020010181905250826007018181548110610a7957634e487b7160e01b600052603260045260246000fd5b906000526020600020906004020160010154868281518110610aab57634e487b7160e01b600052603260045260246000fd5b602002602001018181525050826007018181548110610ada57634e487b7160e01b600052603260045260246000fd5b906000526020600020906004020160020154858281518110610b0c57634e487b7160e01b600052603260045260246000fd5b602002602001018181525050826007018181548110610b3b57634e487b7160e01b600052603260045260246000fd5b906000526020600020906004020160030154848281518110610b6d57634e487b7160e01b600052603260045260246000fd5b602090810291909101015280610b8281611527565b915050610966565b5050509193509193565b60008181526020819052604090205481906001600160a01b03163314610bcc5760405162461bcd60e51b8152600401610548906113ad565b506000908152602081905260409020600801805460ff19169055565b6001548310610c095760405162461bcd60e51b815260040161054890611422565b6000838152602081905260409020600881015460ff16610c3b5760405162461bcd60e51b8152600401610548906113f5565b60078101548310610c5e5760405162461bcd60e51b8152600401610548906112dc565b6000816007018481548110610c8357634e487b7160e01b600052603260045260246000fd5b9060005260206000209060040201905060008311610cb35760405162461bcd60e51b81526004016105489061136b565b8060020154838260030154610cc891906114b5565b1115610ce65760405162461bcd60e51b815260040161054890611308565b6000838260010154610cf891906114cd565b9050803414610d195760405162461bcd60e51b8152600401610548906112b0565b83826003016000828254610d2d91906114b5565b9091555050604051339087907ff4810f4af7d42912f869f8efa162c4287b2dbce7d45c8777141a2c01d68bc0af90610d689089908990611459565b60405180910390a3505050505050565b828054610d84906114ec565b90600052602060002090601f016020900481019282610da65760008555610dec565b82601f10610dbf57805160ff1916838001178555610dec565b82800160010185558215610dec579182015b82811115610dec578251825591602001919060010190610dd1565b50610df8929150610dfc565b5090565b5b80821115610df85760008155600101610dfd565b600082601f830112610e21578081fd5b81356020610e36610e3183611491565b611467565b82815281810190858301855b85811015610e6b57610e59898684358b0101610ed2565b84529284019290840190600101610e42565b5090979650505050505050565b600082601f830112610e88578081fd5b81356020610e98610e3183611491565b8281528181019085830183850287018401881015610eb4578586fd5b855b85811015610e6b57813584529284019290840190600101610eb6565b600082601f830112610ee2578081fd5b813567ffffffffffffffff811115610efc57610efc611558565b610f0f601f8201601f1916602001611467565b818152846020838601011115610f23578283fd5b816020850160208301379081016020019190915292915050565b60008060008060008060008060006101208a8c031215610f5b578485fd5b893567ffffffffffffffff80821115610f72578687fd5b610f7e8d838e01610ed2565b9a5060208c0135915080821115610f93578687fd5b610f9f8d838e01610ed2565b995060408c0135915080821115610fb4578687fd5b610fc08d838e01610ed2565b985060608c0135915080821115610fd5578687fd5b610fe18d838e01610ed2565b975060808c0135915080821115610ff6578687fd5b6110028d838e01610ed2565b965060a08c0135915080821115611017578586fd5b6110238d838e01610ed2565b955060c08c0135915080821115611038578485fd5b6110448d838e01610e11565b945060e08c0135915080821115611059578384fd5b6110658d838e01610e78565b93506101008c013591508082111561107b578283fd5b506110888c828d01610e78565b9150509295985092959850929598565b6000602082840312156110a9578081fd5b5035919050565b6000806000606084860312156110c4578283fd5b505081359360208301359350604090920135919050565b6000815180845260208085019450808401835b8381101561110a578151875295820195908201906001016110ee565b509495945050505050565b60008151808452815b8181101561113a5760208185018101518683018201520161111e565b8181111561114b5782602083870101525b50601f01601f19169290920160200192915050565b6001600160a01b038716815260c06020820181905260009061118490830188611115565b82810360408401526111968188611115565b905082810360608401526111aa8187611115565b905082810360808401528451606082526111c76060830182611115565b9050602086015182820360208401526111e08282611115565b915050604086015182820360408401526111fa8282611115565b935050505082151560a0830152979650505050505050565b6000608082016080835280875180835260a0850191506020925060a0838202860101838a01855b8381101561126757609f19888403018552611255838351611115565b94860194925090850190600101611239565b50508581038487015261127a818a6110db565b9350505050828103604084015261129181866110db565b905082810360608401526112a581856110db565b979650505050505050565b602080825260129082015271125b98dbdc9c9958dd08115512081cd95b9d60721b604082015260600190565b602080825260129082015271092dcecc2d8d2c840e8d2cae440d2dcc8caf60731b604082015260600190565b6020808252601c908201527f4e6f7420656e6f756768207469636b65747320617661696c61626c6500000000604082015260600190565b6020808252601290820152710a8d2cae440c8c2e8c240dad2e6dac2e8c6d60731b604082015260600190565b60208082526022908201527f5175616e74697479206d7573742062652067726561746572207468616e207a65604082015261726f60f01b606082015260800190565b60208082526028908201527f4f6e6c79206576656e74206f776e65722063616e20706572666f726d20746869604082015267399030b1ba34b7b760c11b606082015260800190565b6020808252601390820152724576656e74206973206e6f742061637469766560681b604082015260600190565b602080825260149082015273115d995b9d08191bd95cc81b9bdd08195e1a5cdd60621b604082015260600190565b90815260200190565b918252602082015260400190565b60405181810167ffffffffffffffff8111828210171561148957611489611558565b604052919050565b600067ffffffffffffffff8211156114ab576114ab611558565b5060209081020190565b600082198211156114c8576114c8611542565b500190565b60008160001904831182151516156114e7576114e7611542565b500290565b60028104600182168061150057607f821691505b6020821081141561152157634e487b7160e01b600052602260045260246000fd5b50919050565b600060001982141561153b5761153b611542565b5060010190565b634e487b7160e01b600052601160045260246000fd5b634e487b7160e01b600052604160045260246000fdfea26469706673582212207126954d698cbae908b2bfba741ecb2105cdf824ffee225bfe22c7b194f64c3964736f6c63430008000033",
  "immutableReferences": {},
  "source": "// SPDX-License-Identifier: MIT\npragma solidity ^0.8.0;\n\ncontract EventContract {\n    struct Event {\n        address owner;\n        string posterUrl;\n        string name;\n        string date;\n        Venue venue;\n        Ticket[] tiers;\n        bool isActive;\n    }\n\n    struct Venue {\n        string name;\n        string latitude;\n        string longitude;\n    }\n\n    struct Ticket {\n        string name;\n        uint256 price; // in Wei\n        uint256 totalTickets;\n        uint256 ticketsSold;\n    }\n\n    mapping(uint256 => Event) public events;\n    uint256 public eventCount;\n\n    event EventCreated(uint256 indexed eventId, address indexed owner);\n    event TicketPurchased(uint256 indexed eventId, uint256 tierIndex, uint256 quantity, address indexed buyer);\n\n    modifier onlyOwner(uint256 eventId) {\n        require(events[eventId].owner == msg.sender, \"Only event owner can perform this action\");\n        _;\n    }\n\n    function createEvent(\n        string memory _posterUrl,\n        string memory _name,\n        string memory _date,\n        string memory _venueName,\n        string memory _latitude,\n        string memory _longitude,\n        string[] memory _tierNames,\n        uint256[] memory _prices,\n        uint256[] memory _ticketCounts\n    ) \n    public {\n        require(_tierNames.length == _prices.length && _prices.length == _ticketCounts.length, \"Tier data mismatch\");\n\n        Event storage newEvent = events[eventCount];\n        newEvent.owner = msg.sender;\n        newEvent.posterUrl = _posterUrl;\n        newEvent.name = _name;\n        newEvent.date = _date;\n        newEvent.venue = Venue(_venueName, _latitude, _longitude);\n        newEvent.isActive = true;\n\n        for (uint256 i = 0; i < _tierNames.length; i++) {\n            newEvent.tiers.push(Ticket({\n                name: _tierNames[i],\n                price: _prices[i],\n                totalTickets: _ticketCounts[i],\n                ticketsSold: 0\n            }));\n        }\n\n        emit EventCreated(eventCount, msg.sender);\n        eventCount++;\n    }\n\n    function getEventTiers(uint256 _eventId) \n    public \n    view \n    returns (\n        string[] memory names,\n        uint256[] memory prices,\n        uint256[] memory totalTickets,\n        uint256[] memory ticketsSold\n    ) {\n        Event storage _event = events[_eventId];\n        uint256 tierCount = _event.tiers.length;\n\n        names = new string[](tierCount);\n        prices = new uint256[](tierCount);\n        totalTickets = new uint256[](tierCount);\n        ticketsSold = new uint256[](tierCount);\n\n        for (uint256 i = 0; i < tierCount; i++) {\n            names[i] = _event.tiers[i].name;\n            prices[i] = _event.tiers[i].price;\n            totalTickets[i] = _event.tiers[i].totalTickets;\n            ticketsSold[i] = _event.tiers[i].ticketsSold;\n        }\n\n        return (names, prices, totalTickets, ticketsSold);\n    }\n\n    function buyTickets(\n    uint256 _eventId, \n    uint256 _tierIndex, \n    uint256 _quantity\n    ) \n        public \n        payable \n    {\n        // Ensure the event exists and is active\n        require(_eventId < eventCount, \"Event does not exist\");\n        Event storage _event = events[_eventId];\n        require(_event.isActive, \"Event is not active\");\n\n        // Validate the tier index\n        require(_tierIndex < _event.tiers.length, \"Invalid tier index\");\n\n        // Validate ticket tier and availability\n        Ticket storage tier = _event.tiers[_tierIndex];\n        require(_quantity > 0, \"Quantity must be greater than zero\");\n        require(tier.ticketsSold + _quantity <= tier.totalTickets, \"Not enough tickets available\");\n\n        // Calculate the total cost and validate payment\n        uint256 totalCost = tier.price * _quantity;\n        require(msg.value == totalCost, \"Incorrect ETH sent\");\n\n        // Update the number of tickets sold\n        tier.ticketsSold += _quantity;\n\n        // Emit an event for the ticket purchase\n        emit TicketPurchased(_eventId, _tierIndex, _quantity, msg.sender);\n    }\n\n    function deactivateEvent(uint256 _eventId) \n    public onlyOwner(_eventId) {\n        events[_eventId].isActive = false;\n    }\n\n    function withdrawFunds(uint eventId) \n    public onlyOwner(eventId) {\n        uint balance = address(this).balance;\n        payable(msg.sender).transfer(balance);\n    }\n}\n",
  "sourcePath": "C:\\Users\\Maigua\\Desktop\\eventverse\\client\\src\\contracts\\EventContract.sol",
  "compiler": {
    "name": "solc",
    "version": "0.8.0+commit.c7dfd78e.Emscripten.clang"
  },
  "schemaVersion": "3.4.16",
  "updatedAt": "2025-01-12T21:41:13.431Z",
  "networkType": "ethereum",
  "devdoc": {
    "kind": "dev",
    "methods": {},
    "version": 1
  },
  "userdoc": {
    "kind": "user",
    "methods": {},
    "version": 1
  }
}