{
  "contractName": "EventContract",
  "abi": [
    {
      "anonymous": false,
      "inputs": [
        {
          "indexed": true,
          "internalType": "uint256",
          "name": "eventId",
          "type": "uint256"
        },
        {
          "indexed": true,
          "internalType": "address",
          "name": "owner",
          "type": "address"
        }
      ],
      "name": "EventCreated",
      "type": "event"
    },
    {
      "anonymous": false,
      "inputs": [
        {
          "indexed": true,
          "internalType": "uint256",
          "name": "eventId",
          "type": "uint256"
        },
        {
          "indexed": false,
          "internalType": "uint256",
          "name": "tierIndex",
          "type": "uint256"
        },
        {
          "indexed": false,
          "internalType": "uint256",
          "name": "quantity",
          "type": "uint256"
        },
        {
          "indexed": true,
          "internalType": "address",
          "name": "buyer",
          "type": "address"
        }
      ],
      "name": "TicketPurchased",
      "type": "event"
    },
    {
      "inputs": [],
      "name": "eventCount",
      "outputs": [
        {
          "internalType": "uint256",
          "name": "",
          "type": "uint256"
        }
      ],
      "stateMutability": "view",
      "type": "function",
      "constant": true
    },
    {
      "inputs": [
        {
          "internalType": "uint256",
          "name": "",
          "type": "uint256"
        }
      ],
      "name": "events",
      "outputs": [
        {
          "internalType": "address",
          "name": "owner",
          "type": "address"
        },
        {
          "internalType": "string",
          "name": "contractAddress",
          "type": "string"
        },
        {
          "internalType": "string",
          "name": "posterUrl",
          "type": "string"
        },
        {
          "internalType": "string",
          "name": "name",
          "type": "string"
        },
        {
          "internalType": "string",
          "name": "date",
          "type": "string"
        },
        {
          "components": [
            {
              "internalType": "string",
              "name": "name",
              "type": "string"
            },
            {
              "internalType": "string",
              "name": "latitude",
              "type": "string"
            },
            {
              "internalType": "string",
              "name": "longitude",
              "type": "string"
            }
          ],
          "internalType": "struct EventContract.Venue",
          "name": "venue",
          "type": "tuple"
        },
        {
          "internalType": "bool",
          "name": "isActive",
          "type": "bool"
        }
      ],
      "stateMutability": "view",
      "type": "function",
      "constant": true
    },
    {
      "inputs": [
        {
          "internalType": "string",
          "name": "_contractAddress",
          "type": "string"
        },
        {
          "internalType": "string",
          "name": "_posterUrl",
          "type": "string"
        },
        {
          "internalType": "string",
          "name": "_name",
          "type": "string"
        },
        {
          "internalType": "string",
          "name": "_date",
          "type": "string"
        },
        {
          "internalType": "string",
          "name": "_venueName",
          "type": "string"
        },
        {
          "internalType": "string",
          "name": "_latitude",
          "type": "string"
        },
        {
          "internalType": "string",
          "name": "_longitude",
          "type": "string"
        },
        {
          "internalType": "string[]",
          "name": "_tierNames",
          "type": "string[]"
        },
        {
          "internalType": "uint256[]",
          "name": "_prices",
          "type": "uint256[]"
        },
        {
          "internalType": "uint256[]",
          "name": "_ticketCounts",
          "type": "uint256[]"
        }
      ],
      "name": "createEvent",
      "outputs": [],
      "stateMutability": "nonpayable",
      "type": "function"
    },
    {
      "inputs": [
        {
          "internalType": "uint256",
          "name": "_eventId",
          "type": "uint256"
        }
      ],
      "name": "getEventTiers",
      "outputs": [
        {
          "internalType": "string[]",
          "name": "names",
          "type": "string[]"
        },
        {
          "internalType": "uint256[]",
          "name": "prices",
          "type": "uint256[]"
        },
        {
          "internalType": "uint256[]",
          "name": "totalTickets",
          "type": "uint256[]"
        },
        {
          "internalType": "uint256[]",
          "name": "ticketsSold",
          "type": "uint256[]"
        }
      ],
      "stateMutability": "view",
      "type": "function",
      "constant": true
    },
    {
      "inputs": [
        {
          "internalType": "uint256",
          "name": "_eventId",
          "type": "uint256"
        },
        {
          "internalType": "uint256",
          "name": "_tierIndex",
          "type": "uint256"
        },
        {
          "internalType": "uint256",
          "name": "_quantity",
          "type": "uint256"
        }
      ],
      "name": "buyTickets",
      "outputs": [],
      "stateMutability": "payable",
      "type": "function",
      "payable": true
    },
    {
      "inputs": [
        {
          "internalType": "uint256",
          "name": "_eventId",
          "type": "uint256"
        }
      ],
      "name": "deactivateEvent",
      "outputs": [],
      "stateMutability": "nonpayable",
      "type": "function"
    },
    {
      "inputs": [
        {
          "internalType": "uint256",
          "name": "eventId",
          "type": "uint256"
        }
      ],
      "name": "withdrawFunds",
      "outputs": [],
      "stateMutability": "nonpayable",
      "type": "function"
    }
  ],
  "bytecode": "0x608060405234801561001057600080fd5b506115d8806100206000396000f3fe6080604052600436106100705760003560e01c80637d51d2141161004e5780637d51d214146100f5578063957a632e14610125578063c9a450df14610145578063e9c46bd41461015857610070565b80630b79143014610075578063155dd5ee146100b157806371be2e4a146100d3575b600080fd5b34801561008157600080fd5b5061009561009036600461111c565b610178565b6040516100a897969594939291906111ea565b60405180910390f35b3480156100bd57600080fd5b506100d16100cc36600461111c565b61059f565b005b3480156100df57600080fd5b506100e8610615565b6040516100a89190611484565b34801561010157600080fd5b5061011561011036600461111c565b61061b565b6040516100a894939291906112b6565b34801561013157600080fd5b506100d161014036600461111c565b6109be565b6100d1610153366004611134565b610a12565b34801561016457600080fd5b506100d1610173366004610f9c565b610b5b565b600060208190529081526040902080546001820180546001600160a01b0390921692916101a490611520565b80601f01602080910402602001604051908101604052809291908181526020018280546101d090611520565b801561021d5780601f106101f25761010080835404028352916020019161021d565b820191906000526020600020905b81548152906001019060200180831161020057829003601f168201915b50505050509080600201805461023290611520565b80601f016020809104026020016040519081016040528092919081815260200182805461025e90611520565b80156102ab5780601f10610280576101008083540402835291602001916102ab565b820191906000526020600020905b81548152906001019060200180831161028e57829003601f168201915b5050505050908060030180546102c090611520565b80601f01602080910402602001604051908101604052809291908181526020018280546102ec90611520565b80156103395780601f1061030e57610100808354040283529160200191610339565b820191906000526020600020905b81548152906001019060200180831161031c57829003601f168201915b50505050509080600401805461034e90611520565b80601f016020809104026020016040519081016040528092919081815260200182805461037a90611520565b80156103c75780601f1061039c576101008083540402835291602001916103c7565b820191906000526020600020905b8154815290600101906020018083116103aa57829003601f168201915b505050505090806005016040518060600160405290816000820180546103ec90611520565b80601f016020809104026020016040519081016040528092919081815260200182805461041890611520565b80156104655780601f1061043a57610100808354040283529160200191610465565b820191906000526020600020905b81548152906001019060200180831161044857829003601f168201915b5050505050815260200160018201805461047e90611520565b80601f01602080910402602001604051908101604052809291908181526020018280546104aa90611520565b80156104f75780601f106104cc576101008083540402835291602001916104f7565b820191906000526020600020905b8154815290600101906020018083116104da57829003601f168201915b5050505050815260200160028201805461051090611520565b80601f016020809104026020016040519081016040528092919081815260200182805461053c90611520565b80156105895780601f1061055e57610100808354040283529160200191610589565b820191906000526020600020905b81548152906001019060200180831161056c57829003601f168201915b5050509190925250505060099091015460ff1687565b60008181526020819052604090205481906001600160a01b031633146105e05760405162461bcd60e51b81526004016105d79061140f565b60405180910390fd5b6040514790339082156108fc029083906000818181858888f1935050505015801561060f573d6000803e3d6000fd5b50505050565b60015481565b600081815260208190526040902060088101546060918291829182918067ffffffffffffffff81111561065e57634e487b7160e01b600052604160045260246000fd5b60405190808252806020026020018201604052801561069157816020015b606081526020019060019003908161067c5790505b5095508067ffffffffffffffff8111156106bb57634e487b7160e01b600052604160045260246000fd5b6040519080825280602002602001820160405280156106e4578160200160208202803683370190505b5094508067ffffffffffffffff81111561070e57634e487b7160e01b600052604160045260246000fd5b604051908082528060200260200182016040528015610737578160200160208202803683370190505b5093508067ffffffffffffffff81111561076157634e487b7160e01b600052604160045260246000fd5b60405190808252806020026020018201604052801561078a578160200160208202803683370190505b50925060005b818110156109b4578260080181815481106107bb57634e487b7160e01b600052603260045260246000fd5b906000526020600020906004020160000180546107d790611520565b80601f016020809104026020016040519081016040528092919081815260200182805461080390611520565b80156108505780601f1061082557610100808354040283529160200191610850565b820191906000526020600020905b81548152906001019060200180831161083357829003601f168201915b505050505087828151811061087557634e487b7160e01b600052603260045260246000fd5b60200260200101819052508260080181815481106108a357634e487b7160e01b600052603260045260246000fd5b9060005260206000209060040201600101548682815181106108d557634e487b7160e01b600052603260045260246000fd5b60200260200101818152505082600801818154811061090457634e487b7160e01b600052603260045260246000fd5b90600052602060002090600402016002015485828151811061093657634e487b7160e01b600052603260045260246000fd5b60200260200101818152505082600801818154811061096557634e487b7160e01b600052603260045260246000fd5b90600052602060002090600402016003015484828151811061099757634e487b7160e01b600052603260045260246000fd5b6020908102919091010152806109ac8161155b565b915050610790565b5050509193509193565b60008181526020819052604090205481906001600160a01b031633146109f65760405162461bcd60e51b81526004016105d79061140f565b506000908152602081905260409020600901805460ff19169055565b6000838152602081905260409020600981015460ff16610a445760405162461bcd60e51b81526004016105d790611457565b60088101548310610a675760405162461bcd60e51b81526004016105d790611380565b6000816008018481548110610a8c57634e487b7160e01b600052603260045260246000fd5b906000526020600020906004020190508060020154838260030154610ab191906114e9565b1115610acf5760405162461bcd60e51b81526004016105d7906113ac565b828160010154610adf9190611501565b3414610afd5760405162461bcd60e51b81526004016105d790611354565b82816003016000828254610b1191906114e9565b9091555050604051339086907ff4810f4af7d42912f869f8efa162c4287b2dbce7d45c8777141a2c01d68bc0af90610b4c908890889061148d565b60405180910390a35050505050565b81518351148015610b6d575080518251145b610b895760405162461bcd60e51b81526004016105d7906113e3565b6001805460009081526020818152604090912080546001600160a01b031916331781558c519092610bc19290840191908e0190610dd7565b508951610bd790600283019060208d0190610dd7565b508851610bed90600383019060208c0190610dd7565b508751610c0390600483019060208b0190610dd7565b50604080516060810182528881526020808201899052918101879052885190916005840191610c37918391908c0190610dd7565b506020828101518051610c509260018501920190610dd7565b5060408201518051610c6c916002840191602090910190610dd7565b50505060098101805460ff1916600117905560005b8451811015610d8557816008016040518060800160405280878481518110610cb957634e487b7160e01b600052603260045260246000fd5b60200260200101518152602001868481518110610ce657634e487b7160e01b600052603260045260246000fd5b60200260200101518152602001858481518110610d1357634e487b7160e01b600052603260045260246000fd5b6020908102919091018101518252600091810182905283546001810185559382529081902082518051939460040290910192610d529284920190610dd7565b50602082015160018201556040820151600282015560609091015160039091015580610d7d8161155b565b915050610c81565b506001546040513391907fe43349c008949cf6b65249356e6f918d4aaa0ca79f2b1166df4a4a98c9c16de290600090a360018054906000610dc58361155b565b91905055505050505050505050505050565b828054610de390611520565b90600052602060002090601f016020900481019282610e055760008555610e4b565b82601f10610e1e57805160ff1916838001178555610e4b565b82800160010185558215610e4b579182015b82811115610e4b578251825591602001919060010190610e30565b50610e57929150610e5b565b5090565b5b80821115610e575760008155600101610e5c565b600082601f830112610e80578081fd5b81356020610e95610e90836114c5565b61149b565b82815281810190858301855b85811015610eca57610eb8898684358b0101610f31565b84529284019290840190600101610ea1565b5090979650505050505050565b600082601f830112610ee7578081fd5b81356020610ef7610e90836114c5565b8281528181019085830183850287018401881015610f13578586fd5b855b85811015610eca57813584529284019290840190600101610f15565b600082601f830112610f41578081fd5b813567ffffffffffffffff811115610f5b57610f5b61158c565b610f6e601f8201601f191660200161149b565b818152846020838601011115610f82578283fd5b816020850160208301379081016020019190915292915050565b6000806000806000806000806000806101408b8d031215610fbb578586fd5b8a3567ffffffffffffffff80821115610fd2578788fd5b610fde8e838f01610f31565b9b5060208d0135915080821115610ff3578788fd5b610fff8e838f01610f31565b9a5060408d0135915080821115611014578788fd5b6110208e838f01610f31565b995060608d0135915080821115611035578788fd5b6110418e838f01610f31565b985060808d0135915080821115611056578788fd5b6110628e838f01610f31565b975060a08d0135915080821115611077578687fd5b6110838e838f01610f31565b965060c08d0135915080821115611098578586fd5b6110a48e838f01610f31565b955060e08d01359150808211156110b9578485fd5b6110c58e838f01610e70565b94506101008d01359150808211156110db578384fd5b6110e78e838f01610ed7565b93506101208d01359150808211156110fd578283fd5b5061110a8d828e01610ed7565b9150509295989b9194979a5092959850565b60006020828403121561112d578081fd5b5035919050565b600080600060608486031215611148578283fd5b505081359360208301359350604090920135919050565b6000815180845260208085019450808401835b8381101561118e57815187529582019590820190600101611172565b509495945050505050565b15159052565b60008151808452815b818110156111c4576020818501810151868301820152016111a8565b818111156111d55782602083870101525b50601f01601f19169290920160200192915050565b6001600160a01b038816815260e06020820181905260009061120e9083018961119f565b8281036040840152611220818961119f565b90508281036060840152611234818861119f565b90508281036080840152611248818761119f565b905082810360a0840152845160608252611265606083018261119f565b90506020860151828203602084015261127e828261119f565b91505060408601518282036040840152611298828261119f565b93505050506112aa60c0830184611199565b98975050505050505050565b6000608082016080835280875180835260a0850191506020925060a0838202860101838a01855b8381101561130b57609f198884030185526112f983835161119f565b948601949250908501906001016112dd565b50508581038487015261131e818a61115f565b93505050508281036040840152611335818661115f565b90508281036060840152611349818561115f565b979650505050505050565b602080825260129082015271125b98dbdc9c9958dd08115512081cd95b9d60721b604082015260600190565b602080825260129082015271092dcecc2d8d2c840e8d2cae440d2dcc8caf60731b604082015260600190565b6020808252601c908201527f4e6f7420656e6f756768207469636b65747320617661696c61626c6500000000604082015260600190565b6020808252601290820152710a8d2cae440c8c2e8c240dad2e6dac2e8c6d60731b604082015260600190565b60208082526028908201527f4f6e6c79206576656e74206f776e65722063616e20706572666f726d20746869604082015267399030b1ba34b7b760c11b606082015260800190565b6020808252601390820152724576656e74206973206e6f742061637469766560681b604082015260600190565b90815260200190565b918252602082015260400190565b60405181810167ffffffffffffffff811182821017156114bd576114bd61158c565b604052919050565b600067ffffffffffffffff8211156114df576114df61158c565b5060209081020190565b600082198211156114fc576114fc611576565b500190565b600081600019048311821515161561151b5761151b611576565b500290565b60028104600182168061153457607f821691505b6020821081141561155557634e487b7160e01b600052602260045260246000fd5b50919050565b600060001982141561156f5761156f611576565b5060010190565b634e487b7160e01b600052601160045260246000fd5b634e487b7160e01b600052604160045260246000fdfea2646970667358221220743459b2cc80219d20fe89ee48a2c2ebebe5dd10dd2c013da94dbc080fa322f264736f6c63430008000033",
  "immutableReferences": {},
  "source": "// SPDX-License-Identifier: MIT\npragma solidity ^0.8.0;\n\ncontract EventContract {\n    struct Event {\n        address owner;\n        string contractAddress;\n        string posterUrl;\n        string name;\n        string date;\n        Venue venue;\n        Ticket[] tiers;\n        bool isActive;\n    }\n\n    struct Venue {\n        string name;\n        string latitude;\n        string longitude;\n    }\n\n    struct Ticket {\n        string name;\n        uint256 price; // in Wei\n        uint256 totalTickets;\n        uint256 ticketsSold;\n    }\n\n    mapping(uint256 => Event) public events;\n    uint256 public eventCount;\n\n    event EventCreated(uint256 indexed eventId, address indexed owner);\n    event TicketPurchased(uint256 indexed eventId, uint256 tierIndex, uint256 quantity, address indexed buyer);\n\n    modifier onlyOwner(uint256 eventId) {\n        require(events[eventId].owner == msg.sender, \"Only event owner can perform this action\");\n        _;\n    }\n\n    function createEvent(\n        string memory _contractAddress,\n        string memory _posterUrl,\n        string memory _name,\n        string memory _date,\n        string memory _venueName,\n        string memory _latitude,\n        string memory _longitude,\n        string[] memory _tierNames,\n        uint256[] memory _prices,\n        uint256[] memory _ticketCounts\n    ) \n    public {\n        require(_tierNames.length == _prices.length && _prices.length == _ticketCounts.length, \"Tier data mismatch\");\n\n        Event storage newEvent = events[eventCount];\n        newEvent.owner = msg.sender;\n        newEvent.contractAddress = _contractAddress;\n        newEvent.posterUrl = _posterUrl;\n        newEvent.name = _name;\n        newEvent.date = _date;\n        newEvent.venue = Venue(_venueName, _latitude, _longitude);\n        newEvent.isActive = true;\n\n        for (uint256 i = 0; i < _tierNames.length; i++) {\n            newEvent.tiers.push(Ticket({\n                name: _tierNames[i],\n                price: _prices[i],\n                totalTickets: _ticketCounts[i],\n                ticketsSold: 0\n            }));\n        }\n\n        emit EventCreated(eventCount, msg.sender);\n        eventCount++;\n    }\n\n    function getEventTiers(uint256 _eventId) \n    public \n    view \n    returns (\n        string[] memory names,\n        uint256[] memory prices,\n        uint256[] memory totalTickets,\n        uint256[] memory ticketsSold\n    ) {\n        Event storage _event = events[_eventId];\n        uint256 tierCount = _event.tiers.length;\n\n        names = new string[](tierCount);\n        prices = new uint256[](tierCount);\n        totalTickets = new uint256[](tierCount);\n        ticketsSold = new uint256[](tierCount);\n\n        for (uint256 i = 0; i < tierCount; i++) {\n            names[i] = _event.tiers[i].name;\n            prices[i] = _event.tiers[i].price;\n            totalTickets[i] = _event.tiers[i].totalTickets;\n            ticketsSold[i] = _event.tiers[i].ticketsSold;\n        }\n\n        return (names, prices, totalTickets, ticketsSold);\n    }\n\n    function buyTickets(\n        uint256 _eventId, \n        uint256 _tierIndex, \n        uint256 _quantity\n    ) \n    public payable {\n        Event storage _event = events[_eventId];\n        require(_event.isActive, \"Event is not active\");\n        require(_tierIndex < _event.tiers.length, \"Invalid tier index\");\n\n        Ticket storage tier = _event.tiers[_tierIndex];\n        require(tier.ticketsSold + _quantity <= tier.totalTickets, \"Not enough tickets available\");\n        require(msg.value == tier.price * _quantity, \"Incorrect ETH sent\");\n\n        tier.ticketsSold += _quantity;\n\n        emit TicketPurchased(_eventId, _tierIndex, _quantity, msg.sender);\n    }\n\n    function deactivateEvent(uint256 _eventId) \n    public onlyOwner(_eventId) {\n        events[_eventId].isActive = false;\n    }\n\n    function withdrawFunds(uint eventId) \n    public onlyOwner(eventId) {\n        uint balance = address(this).balance;\n        payable(msg.sender).transfer(balance);\n    }\n}\n",
  "sourcePath": "C:\\Users\\Maigua\\Desktop\\eventverse\\client\\src\\contracts\\EventContract.sol",
  "compiler": {
    "name": "solc",
    "version": "0.8.0+commit.c7dfd78e.Emscripten.clang"
  },
  "schemaVersion": "3.4.16",
  "updatedAt": "2025-01-11T16:36:38.416Z",
  "networkType": "ethereum",
  "devdoc": {
    "kind": "dev",
    "methods": {},
    "version": 1
  },
  "userdoc": {
    "kind": "user",
    "methods": {},
    "version": 1
  }
}