{
  "contractName": "EventContract",
  "abi": [
    {
      "anonymous": false,
      "inputs": [
        {
          "indexed": true,
          "internalType": "uint256",
          "name": "eventId",
          "type": "uint256"
        },
        {
          "indexed": true,
          "internalType": "address",
          "name": "owner",
          "type": "address"
        }
      ],
      "name": "EventCreated",
      "type": "event"
    },
    {
      "anonymous": false,
      "inputs": [
        {
          "indexed": true,
          "internalType": "uint256",
          "name": "eventId",
          "type": "uint256"
        },
        {
          "indexed": false,
          "internalType": "uint256",
          "name": "tierIndex",
          "type": "uint256"
        },
        {
          "indexed": false,
          "internalType": "uint256",
          "name": "quantity",
          "type": "uint256"
        },
        {
          "indexed": true,
          "internalType": "address",
          "name": "buyer",
          "type": "address"
        }
      ],
      "name": "TicketPurchased",
      "type": "event"
    },
    {
      "inputs": [],
      "name": "eventCount",
      "outputs": [
        {
          "internalType": "uint256",
          "name": "",
          "type": "uint256"
        }
      ],
      "stateMutability": "view",
      "type": "function",
      "constant": true
    },
    {
      "inputs": [
        {
          "internalType": "uint256",
          "name": "",
          "type": "uint256"
        }
      ],
      "name": "events",
      "outputs": [
        {
          "internalType": "address",
          "name": "owner",
          "type": "address"
        },
        {
          "internalType": "string",
          "name": "date",
          "type": "string"
        },
        {
          "internalType": "bool",
          "name": "isActive",
          "type": "bool"
        }
      ],
      "stateMutability": "view",
      "type": "function",
      "constant": true
    },
    {
      "inputs": [
        {
          "internalType": "string",
          "name": "_date",
          "type": "string"
        },
        {
          "internalType": "string[]",
          "name": "_tierNames",
          "type": "string[]"
        },
        {
          "internalType": "uint256[]",
          "name": "_prices",
          "type": "uint256[]"
        },
        {
          "internalType": "uint256[]",
          "name": "_ticketCounts",
          "type": "uint256[]"
        }
      ],
      "name": "createEvent",
      "outputs": [],
      "stateMutability": "nonpayable",
      "type": "function"
    },
    {
      "inputs": [
        {
          "internalType": "uint256",
          "name": "_eventId",
          "type": "uint256"
        },
        {
          "internalType": "uint256",
          "name": "_tierIndex",
          "type": "uint256"
        },
        {
          "internalType": "uint256",
          "name": "_quantity",
          "type": "uint256"
        }
      ],
      "name": "buyTickets",
      "outputs": [],
      "stateMutability": "payable",
      "type": "function",
      "payable": true
    },
    {
      "inputs": [
        {
          "internalType": "uint256",
          "name": "_eventId",
          "type": "uint256"
        }
      ],
      "name": "deactivateEvent",
      "outputs": [],
      "stateMutability": "nonpayable",
      "type": "function"
    }
  ],
  "bytecode": "0x608060405234801561001057600080fd5b50610ac3806100206000396000f3fe60806040526004361061004a5760003560e01c80630b7914301461004f57806317707bc61461008757806371be2e4a146100a9578063957a632e146100cb578063c9a450df146100eb575b600080fd5b34801561005b57600080fd5b5061006f61006a366004610791565b6100fe565b60405161007e939291906107d4565b60405180910390f35b34801561009357600080fd5b506100a76100a236600461069b565b6101b6565b005b3480156100b557600080fd5b506100be610388565b60405161007e919061096f565b3480156100d757600080fd5b506100a76100e6366004610791565b61038e565b6100a76100f93660046107a9565b6103e2565b600060208190529081526040902080546001820180546001600160a01b03909216929161012a90610a0b565b80601f016020809104026020016040519081016040528092919081815260200182805461015690610a0b565b80156101a35780601f10610178576101008083540402835291602001916101a3565b820191906000526020600020905b81548152906001019060200180831161018657829003601f168201915b5050506003909301549192505060ff1683565b815183511480156101c8575080518251145b6101ed5760405162461bcd60e51b81526004016101e4906108ce565b60405180910390fd5b6001805460009081526020818152604090912080546001600160a01b031916331781558651909261022592908401919088019061052b565b5060038101805460ff1916600117905560005b845181101561033c5781600201604051806080016040528087848151811061027057634e487b7160e01b600052603260045260246000fd5b6020026020010151815260200186848151811061029d57634e487b7160e01b600052603260045260246000fd5b602002602001015181526020018584815181106102ca57634e487b7160e01b600052603260045260246000fd5b6020908102919091018101518252600091810182905283546001810185559382529081902082518051939460040290910192610309928492019061052b565b5060208201516001820155604082015160028201556060909101516003909101558061033481610a46565b915050610238565b506001546040513391907fe43349c008949cf6b65249356e6f918d4aaa0ca79f2b1166df4a4a98c9c16de290600090a36001805490600061037c83610a46565b91905055505050505050565b60015481565b60008181526020819052604090205481906001600160a01b031633146103c65760405162461bcd60e51b81526004016101e4906108fa565b506000908152602081905260409020600301805460ff19169055565b6000838152602081905260409020600381015460ff166104145760405162461bcd60e51b81526004016101e490610942565b600281015483106104375760405162461bcd60e51b81526004016101e49061086b565b600081600201848154811061045c57634e487b7160e01b600052603260045260246000fd5b90600052602060002090600402019050806002015483826003015461048191906109d4565b111561049f5760405162461bcd60e51b81526004016101e490610897565b8281600101546104af91906109ec565b34146104cd5760405162461bcd60e51b81526004016101e49061083f565b828160030160008282546104e191906109d4565b9091555050604051339086907ff4810f4af7d42912f869f8efa162c4287b2dbce7d45c8777141a2c01d68bc0af9061051c9088908890610978565b60405180910390a35050505050565b82805461053790610a0b565b90600052602060002090601f016020900481019282610559576000855561059f565b82601f1061057257805160ff191683800117855561059f565b8280016001018555821561059f579182015b8281111561059f578251825591602001919060010190610584565b506105ab9291506105af565b5090565b5b808211156105ab57600081556001016105b0565b600082601f8301126105d4578081fd5b813560206105e96105e4836109b0565b610986565b8281528181019085830183850287018401881015610605578586fd5b855b8581101561062357813584529284019290840190600101610607565b5090979650505050505050565b600082601f830112610640578081fd5b813567ffffffffffffffff81111561065a5761065a610a77565b61066d601f8201601f1916602001610986565b818152846020838601011115610681578283fd5b816020850160208301379081016020019190915292915050565b600080600080608085870312156106b0578384fd5b843567ffffffffffffffff808211156106c7578586fd5b6106d388838901610630565b95506020915081870135818111156106e9578586fd5b8701601f810189136106f9578586fd5b80356107076105e4826109b0565b81815284810190838601895b8481101561073c5761072a8e898435890101610630565b84529287019290870190600101610713565b50909850505050604088013592505080821115610757578384fd5b610763888389016105c4565b93506060870135915080821115610778578283fd5b50610785878288016105c4565b91505092959194509250565b6000602082840312156107a2578081fd5b5035919050565b6000806000606084860312156107bd578283fd5b505081359360208301359350604090920135919050565b600060018060a01b038516825260206060818401528451806060850152825b8181101561080f578681018301518582016080015282016107f3565b818111156108205783608083870101525b5093151560408401525050601f91909101601f19160160800192915050565b602080825260129082015271125b98dbdc9c9958dd08115512081cd95b9d60721b604082015260600190565b602080825260129082015271092dcecc2d8d2c840e8d2cae440d2dcc8caf60731b604082015260600190565b6020808252601c908201527f4e6f7420656e6f756768207469636b65747320617661696c61626c6500000000604082015260600190565b6020808252601290820152710a8d2cae440c8c2e8c240dad2e6dac2e8c6d60731b604082015260600190565b60208082526028908201527f4f6e6c79206576656e74206f776e65722063616e20706572666f726d20746869604082015267399030b1ba34b7b760c11b606082015260800190565b6020808252601390820152724576656e74206973206e6f742061637469766560681b604082015260600190565b90815260200190565b918252602082015260400190565b60405181810167ffffffffffffffff811182821017156109a8576109a8610a77565b604052919050565b600067ffffffffffffffff8211156109ca576109ca610a77565b5060209081020190565b600082198211156109e7576109e7610a61565b500190565b6000816000190483118215151615610a0657610a06610a61565b500290565b600281046001821680610a1f57607f821691505b60208210811415610a4057634e487b7160e01b600052602260045260246000fd5b50919050565b6000600019821415610a5a57610a5a610a61565b5060010190565b634e487b7160e01b600052601160045260246000fd5b634e487b7160e01b600052604160045260246000fdfea2646970667358221220f6728093cf5685de635348853740c184d408f9db02a20a9088a4950b8cfb532364736f6c63430008000033",
  "immutableReferences": {},
  "source": "// SPDX-License-Identifier: MIT\npragma solidity ^0.8.0;\n\ncontract EventContract {\n    struct Ticket {\n        string name;\n        uint256 price; // in Wei\n        uint256 totalTickets;\n        uint256 ticketsSold;\n    }\n\n    struct Event {\n        address owner;\n        string date;\n        Ticket[] tiers;\n        bool isActive;\n    }\n\n    mapping(uint256 => Event) public events;\n    uint256 public eventCount;\n\n    event EventCreated(uint256 indexed eventId, address indexed owner);\n    event TicketPurchased(uint256 indexed eventId, uint256 tierIndex, uint256 quantity, address indexed buyer);\n\n    modifier onlyOwner(uint256 eventId) {\n        require(events[eventId].owner == msg.sender, \"Only event owner can perform this action\");\n        _;\n    }\n\n    function createEvent(\n        string memory _date,\n        string[] memory _tierNames,\n        uint256[] memory _prices,\n        uint256[] memory _ticketCounts\n    ) public {\n        require(_tierNames.length == _prices.length && _prices.length == _ticketCounts.length, \"Tier data mismatch\");\n\n        Event storage newEvent = events[eventCount];\n        newEvent.owner = msg.sender;\n        newEvent.date = _date;\n        newEvent.isActive = true;\n\n        for (uint256 i = 0; i < _tierNames.length; i++) {\n            newEvent.tiers.push(Ticket({\n                name: _tierNames[i],\n                price: _prices[i],\n                totalTickets: _ticketCounts[i],\n                ticketsSold: 0\n            }));\n        }\n\n        emit EventCreated(eventCount, msg.sender);\n        eventCount++;\n    }\n\n    function buyTickets(uint256 _eventId, uint256 _tierIndex, uint256 _quantity) public payable {\n        Event storage _event = events[_eventId];\n        require(_event.isActive, \"Event is not active\");\n        require(_tierIndex < _event.tiers.length, \"Invalid tier index\");\n\n        Ticket storage tier = _event.tiers[_tierIndex];\n        require(tier.ticketsSold + _quantity <= tier.totalTickets, \"Not enough tickets available\");\n        require(msg.value == tier.price * _quantity, \"Incorrect ETH sent\");\n\n        tier.ticketsSold += _quantity;\n\n        emit TicketPurchased(_eventId, _tierIndex, _quantity, msg.sender);\n    }\n\n    function deactivateEvent(uint256 _eventId) public onlyOwner(_eventId) {\n        events[_eventId].isActive = false;\n    }\n}\n",
  "sourcePath": "C:\\Users\\Maigua\\Desktop\\eventverse\\client\\src\\contracts\\EventContract.sol",
  "compiler": {
    "name": "solc",
    "version": "0.8.0+commit.c7dfd78e.Emscripten.clang"
  },
  "schemaVersion": "3.4.16",
  "updatedAt": "2025-01-10T17:44:16.917Z",
  "networkType": "ethereum",
  "devdoc": {
    "kind": "dev",
    "methods": {},
    "version": 1
  },
  "userdoc": {
    "kind": "user",
    "methods": {},
    "version": 1
  }
}