{
  "contractName": "EventContract",
  "abi": [
    {
      "anonymous": false,
      "inputs": [
        {
          "indexed": true,
          "internalType": "uint256",
          "name": "eventId",
          "type": "uint256"
        },
        {
          "indexed": true,
          "internalType": "address",
          "name": "owner",
          "type": "address"
        }
      ],
      "name": "EventCreated",
      "type": "event"
    },
    {
      "anonymous": false,
      "inputs": [
        {
          "indexed": true,
          "internalType": "uint256",
          "name": "eventId",
          "type": "uint256"
        },
        {
          "indexed": false,
          "internalType": "uint256",
          "name": "tierIndex",
          "type": "uint256"
        },
        {
          "indexed": false,
          "internalType": "uint256",
          "name": "quantity",
          "type": "uint256"
        },
        {
          "indexed": true,
          "internalType": "address",
          "name": "buyer",
          "type": "address"
        }
      ],
      "name": "TicketPurchased",
      "type": "event"
    },
    {
      "inputs": [],
      "name": "eventCount",
      "outputs": [
        {
          "internalType": "uint256",
          "name": "",
          "type": "uint256"
        }
      ],
      "stateMutability": "view",
      "type": "function",
      "constant": true
    },
    {
      "inputs": [
        {
          "internalType": "uint256",
          "name": "",
          "type": "uint256"
        }
      ],
      "name": "events",
      "outputs": [
        {
          "internalType": "address",
          "name": "owner",
          "type": "address"
        },
        {
          "internalType": "string",
          "name": "date",
          "type": "string"
        },
        {
          "internalType": "bool",
          "name": "isActive",
          "type": "bool"
        }
      ],
      "stateMutability": "view",
      "type": "function",
      "constant": true
    },
    {
      "inputs": [
        {
          "internalType": "string",
          "name": "_date",
          "type": "string"
        },
        {
          "internalType": "string[]",
          "name": "_tierNames",
          "type": "string[]"
        },
        {
          "internalType": "uint256[]",
          "name": "_prices",
          "type": "uint256[]"
        },
        {
          "internalType": "uint256[]",
          "name": "_ticketCounts",
          "type": "uint256[]"
        }
      ],
      "name": "createEvent",
      "outputs": [],
      "stateMutability": "nonpayable",
      "type": "function"
    },
    {
      "inputs": [
        {
          "internalType": "uint256",
          "name": "_eventId",
          "type": "uint256"
        }
      ],
      "name": "getEventTiers",
      "outputs": [
        {
          "internalType": "string[]",
          "name": "names",
          "type": "string[]"
        },
        {
          "internalType": "uint256[]",
          "name": "prices",
          "type": "uint256[]"
        },
        {
          "internalType": "uint256[]",
          "name": "totalTickets",
          "type": "uint256[]"
        },
        {
          "internalType": "uint256[]",
          "name": "ticketsSold",
          "type": "uint256[]"
        }
      ],
      "stateMutability": "view",
      "type": "function",
      "constant": true
    },
    {
      "inputs": [
        {
          "internalType": "uint256",
          "name": "_eventId",
          "type": "uint256"
        },
        {
          "internalType": "uint256",
          "name": "_tierIndex",
          "type": "uint256"
        },
        {
          "internalType": "uint256",
          "name": "_quantity",
          "type": "uint256"
        }
      ],
      "name": "buyTickets",
      "outputs": [],
      "stateMutability": "payable",
      "type": "function",
      "payable": true
    },
    {
      "inputs": [
        {
          "internalType": "uint256",
          "name": "_eventId",
          "type": "uint256"
        }
      ],
      "name": "deactivateEvent",
      "outputs": [],
      "stateMutability": "nonpayable",
      "type": "function"
    },
    {
      "inputs": [
        {
          "internalType": "uint256",
          "name": "eventId",
          "type": "uint256"
        }
      ],
      "name": "withdrawFunds",
      "outputs": [],
      "stateMutability": "nonpayable",
      "type": "function"
    }
  ],
  "bytecode": "0x608060405234801561001057600080fd5b50611037806100206000396000f3fe6080604052600436106100705760003560e01c806371be2e4a1161004e57806371be2e4a146100ef5780637d51d21414610111578063957a632e14610141578063c9a450df1461016157610070565b80630b79143014610075578063155dd5ee146100ad57806317707bc6146100cf575b600080fd5b34801561008157600080fd5b50610095610090366004610c17565b610174565b6040516100a493929190610cdf565b60405180910390f35b3480156100b957600080fd5b506100cd6100c8366004610c17565b61022c565b005b3480156100db57600080fd5b506100cd6100ea366004610b21565b6102a2565b3480156100fb57600080fd5b5061010461046b565b6040516100a49190610ee3565b34801561011d57600080fd5b5061013161012c366004610c17565b610471565b6040516100a49493929190610d15565b34801561014d57600080fd5b506100cd61015c366004610c17565b610814565b6100cd61016f366004610c2f565b610868565b600060208190529081526040902080546001820180546001600160a01b0390921692916101a090610f7f565b80601f01602080910402602001604051908101604052809291908181526020018280546101cc90610f7f565b80156102195780601f106101ee57610100808354040283529160200191610219565b820191906000526020600020905b8154815290600101906020018083116101fc57829003601f168201915b5050506003909301549192505060ff1683565b60008181526020819052604090205481906001600160a01b0316331461026d5760405162461bcd60e51b815260040161026490610e6e565b60405180910390fd5b6040514790339082156108fc029083906000818181858888f1935050505015801561029c573d6000803e3d6000fd5b50505050565b815183511480156102b4575080518251145b6102d05760405162461bcd60e51b815260040161026490610e42565b6001805460009081526020818152604090912080546001600160a01b03191633178155865190926103089290840191908801906109b1565b5060038101805460ff1916600117905560005b845181101561041f5781600201604051806080016040528087848151811061035357634e487b7160e01b600052603260045260246000fd5b6020026020010151815260200186848151811061038057634e487b7160e01b600052603260045260246000fd5b602002602001015181526020018584815181106103ad57634e487b7160e01b600052603260045260246000fd5b60209081029190910181015182526000918101829052835460018101855593825290819020825180519394600402909101926103ec92849201906109b1565b5060208201516001820155604082015160028201556060909101516003909101558061041781610fba565b91505061031b565b506001546040513391907fe43349c008949cf6b65249356e6f918d4aaa0ca79f2b1166df4a4a98c9c16de290600090a36001805490600061045f83610fba565b91905055505050505050565b60015481565b600081815260208190526040902060028101546060918291829182918067ffffffffffffffff8111156104b457634e487b7160e01b600052604160045260246000fd5b6040519080825280602002602001820160405280156104e757816020015b60608152602001906001900390816104d25790505b5095508067ffffffffffffffff81111561051157634e487b7160e01b600052604160045260246000fd5b60405190808252806020026020018201604052801561053a578160200160208202803683370190505b5094508067ffffffffffffffff81111561056457634e487b7160e01b600052604160045260246000fd5b60405190808252806020026020018201604052801561058d578160200160208202803683370190505b5093508067ffffffffffffffff8111156105b757634e487b7160e01b600052604160045260246000fd5b6040519080825280602002602001820160405280156105e0578160200160208202803683370190505b50925060005b8181101561080a5782600201818154811061061157634e487b7160e01b600052603260045260246000fd5b9060005260206000209060040201600001805461062d90610f7f565b80601f016020809104026020016040519081016040528092919081815260200182805461065990610f7f565b80156106a65780601f1061067b576101008083540402835291602001916106a6565b820191906000526020600020905b81548152906001019060200180831161068957829003601f168201915b50505050508782815181106106cb57634e487b7160e01b600052603260045260246000fd5b60200260200101819052508260020181815481106106f957634e487b7160e01b600052603260045260246000fd5b90600052602060002090600402016001015486828151811061072b57634e487b7160e01b600052603260045260246000fd5b60200260200101818152505082600201818154811061075a57634e487b7160e01b600052603260045260246000fd5b90600052602060002090600402016002015485828151811061078c57634e487b7160e01b600052603260045260246000fd5b6020026020010181815250508260020181815481106107bb57634e487b7160e01b600052603260045260246000fd5b9060005260206000209060040201600301548482815181106107ed57634e487b7160e01b600052603260045260246000fd5b60209081029190910101528061080281610fba565b9150506105e6565b5050509193509193565b60008181526020819052604090205481906001600160a01b0316331461084c5760405162461bcd60e51b815260040161026490610e6e565b506000908152602081905260409020600301805460ff19169055565b6000838152602081905260409020600381015460ff1661089a5760405162461bcd60e51b815260040161026490610eb6565b600281015483106108bd5760405162461bcd60e51b815260040161026490610ddf565b60008160020184815481106108e257634e487b7160e01b600052603260045260246000fd5b9060005260206000209060040201905080600201548382600301546109079190610f48565b11156109255760405162461bcd60e51b815260040161026490610e0b565b8281600101546109359190610f60565b34146109535760405162461bcd60e51b815260040161026490610db3565b828160030160008282546109679190610f48565b9091555050604051339086907ff4810f4af7d42912f869f8efa162c4287b2dbce7d45c8777141a2c01d68bc0af906109a29088908890610eec565b60405180910390a35050505050565b8280546109bd90610f7f565b90600052602060002090601f0160209004810192826109df5760008555610a25565b82601f106109f857805160ff1916838001178555610a25565b82800160010185558215610a25579182015b82811115610a25578251825591602001919060010190610a0a565b50610a31929150610a35565b5090565b5b80821115610a315760008155600101610a36565b600082601f830112610a5a578081fd5b81356020610a6f610a6a83610f24565b610efa565b8281528181019085830183850287018401881015610a8b578586fd5b855b85811015610aa957813584529284019290840190600101610a8d565b5090979650505050505050565b600082601f830112610ac6578081fd5b813567ffffffffffffffff811115610ae057610ae0610feb565b610af3601f8201601f1916602001610efa565b818152846020838601011115610b07578283fd5b816020850160208301379081016020019190915292915050565b60008060008060808587031215610b36578384fd5b843567ffffffffffffffff80821115610b4d578586fd5b610b5988838901610ab6565b9550602091508187013581811115610b6f578586fd5b8701601f81018913610b7f578586fd5b8035610b8d610a6a82610f24565b81815284810190838601895b84811015610bc257610bb08e898435890101610ab6565b84529287019290870190600101610b99565b50909850505050604088013592505080821115610bdd578384fd5b610be988838901610a4a565b93506060870135915080821115610bfe578283fd5b50610c0b87828801610a4a565b91505092959194509250565b600060208284031215610c28578081fd5b5035919050565b600080600060608486031215610c43578283fd5b505081359360208301359350604090920135919050565b6000815180845260208085019450808401835b83811015610c8957815187529582019590820190600101610c6d565b509495945050505050565b60008151808452815b81811015610cb957602081850181015186830182015201610c9d565b81811115610cca5782602083870101525b50601f01601f19169290920160200192915050565b6001600160a01b0384168152606060208201819052600090610d0390830185610c94565b90508215156040830152949350505050565b6000608082016080835280875180835260a0850191506020925060a0838202860101838a01855b83811015610d6a57609f19888403018552610d58838351610c94565b94860194925090850190600101610d3c565b505085810384870152610d7d818a610c5a565b93505050508281036040840152610d948186610c5a565b90508281036060840152610da88185610c5a565b979650505050505050565b602080825260129082015271125b98dbdc9c9958dd08115512081cd95b9d60721b604082015260600190565b602080825260129082015271092dcecc2d8d2c840e8d2cae440d2dcc8caf60731b604082015260600190565b6020808252601c908201527f4e6f7420656e6f756768207469636b65747320617661696c61626c6500000000604082015260600190565b6020808252601290820152710a8d2cae440c8c2e8c240dad2e6dac2e8c6d60731b604082015260600190565b60208082526028908201527f4f6e6c79206576656e74206f776e65722063616e20706572666f726d20746869604082015267399030b1ba34b7b760c11b606082015260800190565b6020808252601390820152724576656e74206973206e6f742061637469766560681b604082015260600190565b90815260200190565b918252602082015260400190565b60405181810167ffffffffffffffff81118282101715610f1c57610f1c610feb565b604052919050565b600067ffffffffffffffff821115610f3e57610f3e610feb565b5060209081020190565b60008219821115610f5b57610f5b610fd5565b500190565b6000816000190483118215151615610f7a57610f7a610fd5565b500290565b600281046001821680610f9357607f821691505b60208210811415610fb457634e487b7160e01b600052602260045260246000fd5b50919050565b6000600019821415610fce57610fce610fd5565b5060010190565b634e487b7160e01b600052601160045260246000fd5b634e487b7160e01b600052604160045260246000fdfea264697066735822122067f6fb4b6ce0487223a97c72b89010ee482f93a45efbe5aad5d7e65350a3b32464736f6c63430008000033",
  "immutableReferences": {},
  "source": "// SPDX-License-Identifier: MIT\npragma solidity ^0.8.0;\n\ncontract EventContract {\n    struct Ticket {\n        string name;\n        uint256 price; // in Wei\n        uint256 totalTickets;\n        uint256 ticketsSold;\n    }\n\n    struct Event {\n        address owner;\n        string date;\n        Ticket[] tiers;\n        bool isActive;\n    }\n\n    mapping(uint256 => Event) public events;\n    uint256 public eventCount;\n\n    event EventCreated(uint256 indexed eventId, address indexed owner);\n    event TicketPurchased(uint256 indexed eventId, uint256 tierIndex, uint256 quantity, address indexed buyer);\n\n    modifier onlyOwner(uint256 eventId) {\n        require(events[eventId].owner == msg.sender, \"Only event owner can perform this action\");\n        _;\n    }\n\n    function createEvent(\n        string memory _date,\n        string[] memory _tierNames,\n        uint256[] memory _prices,\n        uint256[] memory _ticketCounts\n    ) \n    public {\n        require(_tierNames.length == _prices.length && _prices.length == _ticketCounts.length, \"Tier data mismatch\");\n\n        Event storage newEvent = events[eventCount];\n        newEvent.owner = msg.sender;\n        newEvent.date = _date;\n        newEvent.isActive = true;\n\n        for (uint256 i = 0; i < _tierNames.length; i++) {\n            newEvent.tiers.push(Ticket({\n                name: _tierNames[i],\n                price: _prices[i],\n                totalTickets: _ticketCounts[i],\n                ticketsSold: 0\n            }));\n        }\n\n        emit EventCreated(eventCount, msg.sender);\n        eventCount++;\n    }\n\n    function getEventTiers(uint256 _eventId) \n    public \n    view \n    returns (\n        string[] memory names,\n        uint256[] memory prices,\n        uint256[] memory totalTickets,\n        uint256[] memory ticketsSold\n    ) {\n        Event storage _event = events[_eventId];\n        uint256 tierCount = _event.tiers.length;\n\n        names = new string[](tierCount);\n        prices = new uint256[](tierCount);\n        totalTickets = new uint256[](tierCount);\n        ticketsSold = new uint256[](tierCount);\n\n        for (uint256 i = 0; i < tierCount; i++) {\n            names[i] = _event.tiers[i].name;\n            prices[i] = _event.tiers[i].price;\n            totalTickets[i] = _event.tiers[i].totalTickets;\n            ticketsSold[i] = _event.tiers[i].ticketsSold;\n        }\n\n        return (names, prices, totalTickets, ticketsSold);\n    }\n\n    function buyTickets(\n        uint256 _eventId, \n        uint256 _tierIndex, \n        uint256 _quantity\n    ) \n    public payable {\n        Event storage _event = events[_eventId];\n        require(_event.isActive, \"Event is not active\");\n        require(_tierIndex < _event.tiers.length, \"Invalid tier index\");\n\n        Ticket storage tier = _event.tiers[_tierIndex];\n        require(tier.ticketsSold + _quantity <= tier.totalTickets, \"Not enough tickets available\");\n        require(msg.value == tier.price * _quantity, \"Incorrect ETH sent\");\n\n        tier.ticketsSold += _quantity;\n\n        emit TicketPurchased(_eventId, _tierIndex, _quantity, msg.sender);\n    }\n\n    function deactivateEvent(uint256 _eventId) \n    public onlyOwner(_eventId) {\n        events[_eventId].isActive = false;\n    }\n\n    function withdrawFunds(uint eventId) \n    public onlyOwner(eventId) {\n        uint balance = address(this).balance;\n        payable(msg.sender).transfer(balance);\n    }\n}\n",
  "sourcePath": "C:\\Users\\Maigua\\Desktop\\eventverse\\client\\src\\contracts\\EventContract.sol",
  "compiler": {
    "name": "solc",
    "version": "0.8.0+commit.c7dfd78e.Emscripten.clang"
  },
  "schemaVersion": "3.4.16",
  "updatedAt": "2025-01-11T12:18:48.659Z",
  "networkType": "ethereum",
  "devdoc": {
    "kind": "dev",
    "methods": {},
    "version": 1
  },
  "userdoc": {
    "kind": "user",
    "methods": {},
    "version": 1
  }
}