{
  "contractName": "EventContract",
  "abi": [
    {
      "anonymous": false,
      "inputs": [
        {
          "indexed": false,
          "internalType": "uint256",
          "name": "eventId",
          "type": "uint256"
        }
      ],
      "name": "EventCancelled",
      "type": "event"
    },
    {
      "anonymous": false,
      "inputs": [
        {
          "indexed": false,
          "internalType": "uint256",
          "name": "eventId",
          "type": "uint256"
        },
        {
          "indexed": false,
          "internalType": "address",
          "name": "admin",
          "type": "address"
        },
        {
          "indexed": false,
          "internalType": "string",
          "name": "name",
          "type": "string"
        },
        {
          "indexed": false,
          "internalType": "uint256",
          "name": "date",
          "type": "uint256"
        },
        {
          "indexed": false,
          "internalType": "uint256",
          "name": "ticketCount",
          "type": "uint256"
        }
      ],
      "name": "EventCreated",
      "type": "event"
    },
    {
      "anonymous": false,
      "inputs": [
        {
          "indexed": false,
          "internalType": "uint256",
          "name": "eventId",
          "type": "uint256"
        },
        {
          "indexed": false,
          "internalType": "address",
          "name": "buyer",
          "type": "address"
        },
        {
          "indexed": false,
          "internalType": "uint256",
          "name": "quantity",
          "type": "uint256"
        }
      ],
      "name": "TicketsPurchased",
      "type": "event"
    },
    {
      "anonymous": false,
      "inputs": [
        {
          "indexed": false,
          "internalType": "uint256",
          "name": "eventId",
          "type": "uint256"
        },
        {
          "indexed": false,
          "internalType": "address",
          "name": "from",
          "type": "address"
        },
        {
          "indexed": false,
          "internalType": "address",
          "name": "to",
          "type": "address"
        },
        {
          "indexed": false,
          "internalType": "uint256",
          "name": "quantity",
          "type": "uint256"
        }
      ],
      "name": "TicketsTransferred",
      "type": "event"
    },
    {
      "inputs": [
        {
          "internalType": "uint256",
          "name": "",
          "type": "uint256"
        }
      ],
      "name": "events",
      "outputs": [
        {
          "internalType": "address",
          "name": "admin",
          "type": "address"
        },
        {
          "internalType": "string",
          "name": "name",
          "type": "string"
        },
        {
          "internalType": "uint256",
          "name": "date",
          "type": "uint256"
        },
        {
          "internalType": "uint256",
          "name": "price",
          "type": "uint256"
        },
        {
          "internalType": "uint256",
          "name": "ticketCount",
          "type": "uint256"
        },
        {
          "internalType": "uint256",
          "name": "ticketRemaining",
          "type": "uint256"
        },
        {
          "internalType": "bool",
          "name": "isCancelled",
          "type": "bool"
        }
      ],
      "stateMutability": "view",
      "type": "function",
      "constant": true
    },
    {
      "inputs": [],
      "name": "nextId",
      "outputs": [
        {
          "internalType": "uint256",
          "name": "",
          "type": "uint256"
        }
      ],
      "stateMutability": "view",
      "type": "function",
      "constant": true
    },
    {
      "inputs": [
        {
          "internalType": "address",
          "name": "",
          "type": "address"
        },
        {
          "internalType": "uint256",
          "name": "",
          "type": "uint256"
        }
      ],
      "name": "tickets",
      "outputs": [
        {
          "internalType": "uint256",
          "name": "",
          "type": "uint256"
        }
      ],
      "stateMutability": "view",
      "type": "function",
      "constant": true
    },
    {
      "inputs": [
        {
          "internalType": "string",
          "name": "name",
          "type": "string"
        },
        {
          "internalType": "uint256",
          "name": "date",
          "type": "uint256"
        },
        {
          "internalType": "uint256",
          "name": "price",
          "type": "uint256"
        },
        {
          "internalType": "uint256",
          "name": "ticketCount",
          "type": "uint256"
        }
      ],
      "name": "createEvent",
      "outputs": [],
      "stateMutability": "nonpayable",
      "type": "function"
    },
    {
      "inputs": [
        {
          "internalType": "uint256",
          "name": "id",
          "type": "uint256"
        },
        {
          "internalType": "uint256",
          "name": "quantity",
          "type": "uint256"
        }
      ],
      "name": "buyTicket",
      "outputs": [],
      "stateMutability": "payable",
      "type": "function",
      "payable": true
    },
    {
      "inputs": [
        {
          "internalType": "uint256",
          "name": "eventId",
          "type": "uint256"
        },
        {
          "internalType": "uint256",
          "name": "quantity",
          "type": "uint256"
        },
        {
          "internalType": "address",
          "name": "to",
          "type": "address"
        }
      ],
      "name": "transferTicket",
      "outputs": [],
      "stateMutability": "nonpayable",
      "type": "function"
    },
    {
      "inputs": [
        {
          "internalType": "uint256",
          "name": "id",
          "type": "uint256"
        }
      ],
      "name": "cancelEvent",
      "outputs": [],
      "stateMutability": "nonpayable",
      "type": "function"
    },
    {
      "inputs": [
        {
          "internalType": "uint256",
          "name": "id",
          "type": "uint256"
        }
      ],
      "name": "withdrawFunds",
      "outputs": [],
      "stateMutability": "nonpayable",
      "type": "function"
    }
  ],
  "bytecode": "0x608060405234801561001057600080fd5b50610f96806100206000396000f3fe60806040526004361061007b5760003560e01c80633f69babd1161004e5780633f69babd1461011157806361b8ce8c14610131578063dae7a13c14610153578063f086a09b146101735761007b565b80630374ab0b146100805780630b791430146100a2578063155dd5ee146100de578063298ec208146100fe575b600080fd5b34801561008c57600080fd5b506100a061009b366004610983565b610193565b005b3480156100ae57600080fd5b506100c26100bd366004610a06565b61033f565b6040516100d59796959493929190610a79565b60405180910390f35b3480156100ea57600080fd5b506100a06100f9366004610a06565b610410565b6100a061010c366004610a1e565b6104ff565b34801561011d57600080fd5b506100a061012c366004610a06565b610671565b34801561013d57600080fd5b50610146610749565b6040516100d59190610e02565b34801561015f57600080fd5b5061014661016e36600461095a565b61074f565b34801561017f57600080fd5b506100a061018e366004610a3f565b61076c565b4283116101bb5760405162461bcd60e51b81526004016101b290610bfd565b60405180910390fd5b600081116101db5760405162461bcd60e51b81526004016101b290610b55565b6040518060e00160405280336001600160a01b0316815260200186868080601f016020809104026020016040519081016040528093929190818152602001838380828437600092018290525093855250505060208083018790526040808401879052606084018690526080840186905260a09093018290526002548252818152919020825181546001600160a01b0319166001600160a01b039091161781558282015180519192610294926001850192909101906108a5565b5060408201518160020155606082015181600301556080820151816004015560a0820151816005015560c08201518160060160006101000a81548160ff0219169083151502179055509050507f3e1e16dc53562886fa9ab2acde567c1067c24a0c4daad0e47ab75c7b194a90ed600254338787878660405161031b96959493929190610e30565b60405180910390a16002805490600061033383610f2f565b91905055505050505050565b600060208190529081526040902080546001820180546001600160a01b03909216929161036b90610ef4565b80601f016020809104026020016040519081016040528092919081815260200182805461039790610ef4565b80156103e45780601f106103b9576101008083540402835291602001916103e4565b820191906000526020600020905b8154815290600101906020018083116103c757829003601f168201915b505050600284015460038501546004860154600587015460069097015495969295919450925060ff1687565b60008181526020819052604090206002015481906104405760405162461bcd60e51b81526004016101b290610d94565b600082815260208190526040902080546001600160a01b031633146104775760405162461bcd60e51b81526004016101b290610cdf565b8060020154421161049a5760405162461bcd60e51b81526004016101b290610dcb565b600681015460ff16156104bf5760405162461bcd60e51b81526004016101b290610b0b565b805460405147916001600160a01b03169082156108fc029083906000818181858888f193505050501580156104f8573d6000803e3d6000fd5b5050505050565b600082815260208190526040902060020154829061052f5760405162461bcd60e51b81526004016101b290610d94565b600083815260208190526040902060020154839042106105615760405162461bcd60e51b81526004016101b290610bcf565b6000848152602081905260409020600681015460ff16156105945760405162461bcd60e51b81526004016101b290610c45565b8381600301546105a49190610ebe565b34146105c25760405162461bcd60e51b81526004016101b290610d4d565b83816005015410156105e65760405162461bcd60e51b81526004016101b290610c71565b838160050160008282546105fa9190610edd565b909155505033600090815260016020908152604080832088845290915281208054869290610629908490610ea6565b90915550506040517ff7c58d5e745042ae3ed41454214210ae1bca7e4a2087c19a3fb2cfc0ed7648e79061066290879033908890610e87565b60405180910390a15050505050565b60008181526020819052604090206002015481906106a15760405162461bcd60e51b81526004016101b290610d94565b600082815260208190526040902080546001600160a01b031633146106d85760405162461bcd60e51b81526004016101b290610d16565b600681015460ff16156106fd5760405162461bcd60e51b81526004016101b290610ca8565b60068101805460ff191660011790556040517fdc3cb569b066460f4a22dffa05317bdcce5d3826382ed49a21f13e5fa2063d399061073c908590610e02565b60405180910390a1505050565b60025481565b600160209081526000928352604080842090915290825290205481565b600083815260208190526040902060020154839061079c5760405162461bcd60e51b81526004016101b290610d94565b600084815260208190526040902060020154849042106107ce5760405162461bcd60e51b81526004016101b290610bcf565b3360009081526001602090815260408083208884529091529020548411156108085760405162461bcd60e51b81526004016101b290610ba3565b33600090815260016020908152604080832088845290915281208054869290610832908490610edd565b90915550506001600160a01b03831660009081526001602090815260408083208884529091528120805486929061086a908490610ea6565b90915550506040517f5c7f03b692ed11ce4d6344da92aa3e5da71d4d62e1471817c1616ea7d0c7de7990610662908790339087908990610e0b565b8280546108b190610ef4565b90600052602060002090601f0160209004810192826108d35760008555610919565b82601f106108ec57805160ff1916838001178555610919565b82800160010185558215610919579182015b828111156109195782518255916020019190600101906108fe565b50610925929150610929565b5090565b5b80821115610925576000815560010161092a565b80356001600160a01b038116811461095557600080fd5b919050565b6000806040838503121561096c578182fd5b6109758361093e565b946020939093013593505050565b60008060008060006080868803121561099a578081fd5b853567ffffffffffffffff808211156109b1578283fd5b818801915088601f8301126109c4578283fd5b8135818111156109d2578384fd5b8960208285010111156109e3578384fd5b60209283019a909950918801359760408101359750606001359550909350505050565b600060208284031215610a17578081fd5b5035919050565b60008060408385031215610a30578182fd5b50508035926020909101359150565b600080600060608486031215610a53578283fd5b8335925060208401359150610a6a6040850161093e565b90509250925092565b15159052565b600060018060a01b0389168252602060e08184015288518060e0850152825b81811015610ab5578a810183015185820161010001528201610a98565b81811115610ac7578361010083870101525b50610100601f19601f830116850101925050508660408301528560608301528460808301528360a0830152610aff60c0830184610a73565b98975050505050505050565b6020808252602a908201527f43616e6e6f742077697468647261772066756e647320666f722063616e63656c6040820152696c6564206576656e747360b01b606082015260800190565b6020808252602e908201527f43616e206f6e6c79206f7267616e697a65206576656e7420776974682061742060408201526d1b19585cdd080c481d1a58dad95d60921b606082015260800190565b6020808252601290820152714e6f7420656e6f756768207469636b65747360701b604082015260600190565b6020808252601490820152734576656e74206d7573742062652061637469766560601b604082015260600190565b60208082526028908201527f43616e206f6e6c79206f7267616e697a65206576656e74206174206120667574604082015267757265206461746560c01b606082015260800190565b602080825260129082015271115d995b9d081a5cc818d85b98d95b1b195960721b604082015260600190565b60208082526017908201527f4e6f7420656e6f756768207469636b657473206c656674000000000000000000604082015260600190565b60208082526017908201527f4576656e7420616c72656164792063616e63656c6c6564000000000000000000604082015260600190565b6020808252601d908201527f4f6e6c792061646d696e2063616e2077697468647261772066756e6473000000604082015260600190565b6020808252601f908201527f4f6e6c792061646d696e2063616e2063616e63656c20746865206576656e7400604082015260600190565b60208082526027908201527f45746865722073656e74206d75737420657175616c20746f74616c207469636b604082015266195d0818dbdcdd60ca1b606082015260800190565b60208082526019908201527f54686973206576656e7420646f6573206e6f7420657869737400000000000000604082015260600190565b60208082526017908201527f4576656e74206d75737420626520636f6e636c75646564000000000000000000604082015260600190565b90815260200190565b9384526001600160a01b03928316602085015291166040830152606082015260800190565b8681526001600160a01b038616602082015260a06040820181905281018490526000848660c08401378060c0868401015260c0601f19601f8701168301019050836060830152826080830152979650505050505050565b9283526001600160a01b03919091166020830152604082015260600190565b60008219821115610eb957610eb9610f4a565b500190565b6000816000190483118215151615610ed857610ed8610f4a565b500290565b600082821015610eef57610eef610f4a565b500390565b600281046001821680610f0857607f821691505b60208210811415610f2957634e487b7160e01b600052602260045260246000fd5b50919050565b6000600019821415610f4357610f43610f4a565b5060010190565b634e487b7160e01b600052601160045260246000fdfea2646970667358221220035caefcff0599342260e238b8bd00e0de293f171d94ac5338bec26e15f409fa64736f6c63430008000033",
  "immutableReferences": {},
  "source": "// SPDX-License-Identifier: MIT\r\npragma solidity ^0.8.0;\r\n\r\ncontract EventContract {\r\n    struct Event {\r\n        address admin;\r\n        string name;\r\n        uint date;\r\n        uint price;\r\n        uint ticketCount;\r\n        uint ticketRemaining;\r\n        bool isCancelled;\r\n    }\r\n\r\n    mapping(uint => Event) public events;\r\n    mapping(address => mapping(uint => uint)) public tickets;\r\n    uint public nextId;\r\n\r\n    // Event for logging ticket purchases\r\n    event TicketsPurchased(uint eventId, address buyer, uint quantity);\r\n\r\n    // Event for logging ticket transfers\r\n    event TicketsTransferred(uint eventId, address from, address to, uint quantity);\r\n\r\n    // Event for logging new event creation\r\n    event EventCreated(uint eventId, address admin, string name, uint date, uint ticketCount);\r\n\r\n    // Event for logging event cancellation\r\n    event EventCancelled(uint eventId);\r\n\r\n    // Function to create a new event\r\n    function createEvent(\r\n        string calldata name,\r\n        uint date,\r\n        uint price,\r\n        uint ticketCount\r\n    ) external {\r\n        require(date > block.timestamp, \"Can only organize event at a future date\");\r\n        require(ticketCount > 0, \"Can only organize event with at least 1 ticket\");\r\n        events[nextId] = Event(\r\n            msg.sender, \r\n            name, \r\n            date, \r\n            price, \r\n            ticketCount,\r\n            ticketCount,\r\n            false\r\n        );\r\n        emit EventCreated(nextId, msg.sender, name, date, ticketCount);\r\n        nextId++;\r\n    }\r\n\r\n    // Function to buy tickets for an event\r\n    function buyTicket(uint id, uint quantity) \r\n        eventExist(id) \r\n        eventActive(id)\r\n        payable \r\n        external \r\n    {\r\n        Event storage _event = events[id];\r\n        require(!_event.isCancelled, \"Event is cancelled\");\r\n        require(msg.value == (_event.price * quantity), \"Ether sent must equal total ticket cost\");\r\n        require(_event.ticketRemaining >= quantity, \"Not enough tickets left\");\r\n        _event.ticketRemaining -= quantity;\r\n        tickets[msg.sender][id] += quantity;\r\n        emit TicketsPurchased(id, msg.sender, quantity);\r\n    }\r\n\r\n    // Function to transfer tickets\r\n    function transferTicket(uint eventId, uint quantity, address to) \r\n        eventExist(eventId) \r\n        eventActive(eventId) \r\n        external \r\n    {\r\n        require(tickets[msg.sender][eventId] >= quantity, \"Not enough tickets\");\r\n        tickets[msg.sender][eventId] -= quantity;\r\n        tickets[to][eventId] += quantity;\r\n        emit TicketsTransferred(eventId, msg.sender, to, quantity);\r\n    }\r\n\r\n    // Function for event admin to cancel an event\r\n    function cancelEvent(uint id) external eventExist(id) {\r\n        Event storage _event = events[id];\r\n        require(msg.sender == _event.admin, \"Only admin can cancel the event\");\r\n        require(!_event.isCancelled, \"Event already cancelled\");\r\n        _event.isCancelled = true;\r\n        emit EventCancelled(id);\r\n    }\r\n\r\n    // Function for event admin to withdraw funds\r\n    function withdrawFunds(uint id) external eventExist(id) {\r\n        Event storage _event = events[id];\r\n        require(msg.sender == _event.admin, \"Only admin can withdraw funds\");\r\n        require(block.timestamp > _event.date, \"Event must be concluded\");\r\n        require(!_event.isCancelled, \"Cannot withdraw funds for cancelled events\");\r\n        uint balance = address(this).balance;\r\n        payable(_event.admin).transfer(balance);\r\n    }\r\n\r\n    // Modifier to check if event exists\r\n    modifier eventExist(uint id) {\r\n        require(events[id].date != 0, \"This event does not exist\");\r\n        _;\r\n    }\r\n\r\n    // Modifier to check if event is active\r\n    modifier eventActive(uint id) {\r\n        require(block.timestamp < events[id].date, \"Event must be active\");\r\n        _;\r\n    }\r\n}\r\n",
  "sourcePath": "C:\\Users\\Maigua\\Desktop\\eventverse\\client\\src\\contracts\\EventContract.sol",
  "compiler": {
    "name": "solc",
    "version": "0.8.0+commit.c7dfd78e.Emscripten.clang"
  },
  "schemaVersion": "3.4.16",
  "updatedAt": "2024-12-24T08:27:18.796Z",
  "networkType": "ethereum",
  "devdoc": {
    "kind": "dev",
    "methods": {},
    "version": 1
  },
  "userdoc": {
    "kind": "user",
    "methods": {},
    "version": 1
  }
}